{
  "contractName": "MainContract",
  "abi": [
    {
      "inputs": [],
      "payable": true,
      "stateMutability": "payable",
      "type": "constructor"
    },
    {
      "payable": true,
      "stateMutability": "payable",
      "type": "fallback"
    },
    {
      "constant": false,
      "inputs": [],
      "name": "collect",
      "outputs": [],
      "payable": false,
      "stateMutability": "nonpayable",
      "type": "function"
    },
    {
      "constant": false,
      "inputs": [
        {
          "name": "addressSeller",
          "type": "address"
        },
        {
          "name": "creditCeiling",
          "type": "uint256"
        }
      ],
      "name": "sendFundsToVerify",
      "outputs": [],
      "payable": true,
      "stateMutability": "payable",
      "type": "function"
    }
  ],
  "bytecode": "0x608060405260006001556102a6806100186000396000f30060806040526004361061004c576000357c0100000000000000000000000000000000000000000000000000000000900463ffffffff168063c329cef714610060578063e5225381146100a0575b610058600154346100b7565b600181905550005b61009e600480360381019080803573ffffffffffffffffffffffffffffffffffffffff169060200190929190803590602001909291905050506100d3565b005b3480156100ac57600080fd5b506100b56101c0565b005b600081830190508281101515156100ca57fe5b80905092915050565b6000806100e1346064610245565b91506100ec8261025b565b6100f6348361025e565b9050828111151561014d578373ffffffffffffffffffffffffffffffffffffffff166108fc829081150290604051600060405180830381858888f19350505050158015610147573d6000803e3d6000fd5b506101ba565b808310156101b95760008311156101a6578373ffffffffffffffffffffffffffffffffffffffff166108fc849081150290604051600060405180830381858888f193505050501580156101a4573d6000803e3d6000fd5b505b6101b86101b3828561025e565b610277565b5b5b50505050565b600080600154111561024257600154905060006001819055506000809054906101000a900473ffffffffffffffffffffffffffffffffffffffff1673ffffffffffffffffffffffffffffffffffffffff166108fc829081150290604051600060405180830381858888f19350505050158015610240573d6000803e3d6000fd5b505b50565b6000818381151561025257fe5b04905092915050565b50565b600082821115151561026c57fe5b818303905092915050565b505600a165627a7a72305820d3a3ae7a6727b5e71e661f63e4bc1dab687403673eff9ceb252cd5eff68257140029",
  "source": "pragma solidity ^0.4.22;\r\n\r\n//import 'https://github.com/verifyas/contract/contracts/CREDToken.sol';\r\nimport '../node_modules/openzeppelin-solidity/contracts/math/SafeMath.sol';\r\n\r\ncontract MainContract {\r\n\r\n    constructor () public payable {\r\n    }\r\n\r\n    address addressVerify; // TODO: Set to Verify Ethereum address\r\n\r\n    uint collectedEther = 0;\r\n\r\n    function() external payable {\r\n        collectedEther = SafeMath.add(collectedEther, msg.value); \r\n    }\r\n\r\n    function collect () external {\r\n        if (collectedEther > 0) {\r\n            uint amount = collectedEther;\r\n            collectedEther = 0;\r\n            addressVerify.transfer(amount);\r\n        }\r\n    }\r\n\r\n    function sendFundsToVerify (address addressSeller, uint creditCeiling) public payable {\r\n        uint transactionFee = SafeMath.div(msg.value, 100);\r\n        toCredToken(transactionFee);\r\n        uint payment = SafeMath.sub(msg.value, transactionFee);\r\n        if (payment <= creditCeiling) {\r\n            addressSeller.transfer(payment);\r\n        } else if (creditCeiling < payment) {\r\n            if (creditCeiling > 0) {\r\n                addressSeller.transfer(creditCeiling);\r\n            }\r\n            toDaiToken(SafeMath.sub(payment, creditCeiling));\r\n        }\r\n    }\r\n\r\n    function toDaiToken (uint amountInEther) private {\r\n    }\r\n\r\n    function toCredToken (uint amountInEther) private {\r\n    }\r\n}",
  "sourcePath": "C:\\Users\\ricky_000\\Documents\\GitHub\\ethereum-smart-contract\\contracts\\MainContract.sol",
  "compiler": {
    "name": "solc",
    "version": "0.4.24+commit.e67f0147.Emscripten.clang"
  },
  "schemaVersion": "2.0.1",
  "updatedAt": "2018-07-09T20:39:32.398Z"
}