{
  "contractName": "MainContract",
  "abi": [
    {
      "inputs": [],
      "payable": true,
      "stateMutability": "payable",
      "type": "constructor"
    },
    {
      "payable": true,
      "stateMutability": "payable",
      "type": "fallback"
    },
    {
      "constant": false,
      "inputs": [],
      "name": "collect",
      "outputs": [],
      "payable": false,
      "stateMutability": "nonpayable",
      "type": "function"
    },
    {
      "constant": false,
      "inputs": [
        {
          "name": "_recepient",
          "type": "address"
        },
        {
          "name": "_credit_ceiling",
          "type": "uint256"
        }
      ],
      "name": "first_payment",
      "outputs": [],
      "payable": true,
      "stateMutability": "payable",
      "type": "function"
    }
  ],
  "bytecode": "0x6080604052600060015561029f806100186000396000f30060806040526004361061004c576000357c0100000000000000000000000000000000000000000000000000000000900463ffffffff168063e522538114610060578063e9d56a8314610077575b610058600154346100b7565b600181905550005b34801561006c57600080fd5b506100756100d3565b005b6100b5600480360381019080803573ffffffffffffffffffffffffffffffffffffffff16906020019092919080359060200190929190505050610158565b005b600081830190508281101515156100ca57fe5b80905092915050565b600080600154111561015557600154905060006001819055506000809054906101000a900473ffffffffffffffffffffffffffffffffffffffff1673ffffffffffffffffffffffffffffffffffffffff166108fc829081150290604051600060405180830381858888f19350505050158015610153573d6000803e3d6000fd5b505b50565b60008061016634606461023e565b915061017182610254565b61017b3483610257565b905082811115156101d2578373ffffffffffffffffffffffffffffffffffffffff166108fc829081150290604051600060405180830381858888f193505050501580156101cc573d6000803e3d6000fd5b50610238565b8083101561023757600083111561022b578373ffffffffffffffffffffffffffffffffffffffff166108fc849081150290604051600060405180830381858888f19350505050158015610229573d6000803e3d6000fd5b505b610236838203610270565b5b5b50505050565b6000818381151561024b57fe5b04905092915050565b50565b600082821115151561026557fe5b818303905092915050565b505600a165627a7a72305820c7682467f31060fdb2b1f31fb06dbae52d952291b701e6c76ba26b4edecc4a9e0029",
  "source": "pragma solidity ^0.4.22;\r\n\r\n//import 'https://github.com/verifyas/contract/contracts/CREDToken.sol';\r\nimport '../node_modules/openzeppelin-solidity/contracts/math/SafeMath.sol';\r\n\r\ncontract MainContract {\r\n    \r\n    //empty constructor marked as payable\r\n    constructor () public payable{\r\n    \r\n    }\r\n    address verify_address;//will be set to constant address of account owned be verify\r\n    uint ether_from_fallback = 0;\r\n    //fallback function needed to be implemented to recive ether\r\n    //it collects ether that is sent without any data\r\n    //we have a variable storing the amount of ether collected here\r\n    //then a function will be called by verify to collect the amount\r\n    function () external payable{\r\n      ether_from_fallback = SafeMath.add(ether_from_fallback, msg.value); \r\n    }\r\n    //collect function for verify to collect extra sent ether \r\n    function collect () external{\r\n        if (ether_from_fallback>0){\r\n            uint amount =  ether_from_fallback;\r\n            ether_from_fallback = 0;\r\n            verify_address.transfer(amount);\r\n        }\r\n    } \r\n    //function to handle the first part of the transaction: converts 1% to creds, sends\r\n    //advanced payment to vendor, keeps remaining amount in escrow (currently in contract)\r\n    //@param _recepient: the address of the seller\r\n    //@param _credit_ceiling: credit of seller\r\n    function first_payment (address _recepient, uint _credit_ceiling) public payable{\r\n      uint cred_amount = SafeMath.div(msg.value,100);\r\n      convert_to_creds(cred_amount);\r\n      uint amount = SafeMath.sub(msg.value,cred_amount );\r\n        if (amount<=_credit_ceiling)\r\n        _recepient.transfer(amount);\r\n        else if (_credit_ceiling<amount){\r\n            if (_credit_ceiling > 0){\r\n                _recepient.transfer(_credit_ceiling);\r\n            }\r\n            convert_to_stablecoin(amount-_credit_ceiling);\r\n        }\r\n        \r\n    }\r\n    \r\n    //place holders for functions to do the exchanges\r\n    //right now if they do nothing the contract can still work fine with ether\r\n    function convert_to_stablecoin (uint amount) private{\r\n        \r\n    }\r\n    function convert_to_creds (uint amount) private{\r\n        \r\n    }\r\n}",
  "sourcePath": "C:\\Users\\ricky_000\\Documents\\GitHub\\ethereum-smart-contract\\contracts\\MainContract.sol",
  "compiler": {
    "name": "solc",
    "version": "0.4.24+commit.e67f0147.Emscripten.clang"
  },
  "schemaVersion": "2.0.1",
  "updatedAt": "2018-07-09T19:14:25.397Z"
}