{
  "contractName": "Purchase",
  "abi": [
    {
      "constant": true,
      "inputs": [
        {
          "name": "",
          "type": "uint256"
        }
      ],
      "name": "amounts",
      "outputs": [
        {
          "name": "",
          "type": "uint256"
        }
      ],
      "payable": false,
      "stateMutability": "view",
      "type": "function"
    },
    {
      "constant": true,
      "inputs": [],
      "name": "verifyWallet",
      "outputs": [
        {
          "name": "",
          "type": "address"
        }
      ],
      "payable": false,
      "stateMutability": "view",
      "type": "function"
    },
    {
      "constant": true,
      "inputs": [],
      "name": "owner",
      "outputs": [
        {
          "name": "",
          "type": "address"
        }
      ],
      "payable": false,
      "stateMutability": "view",
      "type": "function"
    },
    {
      "constant": true,
      "inputs": [],
      "name": "curIndex",
      "outputs": [
        {
          "name": "",
          "type": "uint256"
        }
      ],
      "payable": false,
      "stateMutability": "view",
      "type": "function"
    },
    {
      "constant": true,
      "inputs": [
        {
          "name": "",
          "type": "uint256"
        }
      ],
      "name": "sellers",
      "outputs": [
        {
          "name": "",
          "type": "address"
        }
      ],
      "payable": false,
      "stateMutability": "view",
      "type": "function"
    },
    {
      "constant": true,
      "inputs": [
        {
          "name": "",
          "type": "uint256"
        }
      ],
      "name": "buyers",
      "outputs": [
        {
          "name": "",
          "type": "address"
        }
      ],
      "payable": false,
      "stateMutability": "view",
      "type": "function"
    },
    {
      "inputs": [],
      "payable": true,
      "stateMutability": "payable",
      "type": "constructor"
    },
    {
      "payable": true,
      "stateMutability": "payable",
      "type": "fallback"
    },
    {
      "constant": false,
      "inputs": [
        {
          "name": "newWallet",
          "type": "address"
        }
      ],
      "name": "setVerifyWallet",
      "outputs": [],
      "payable": false,
      "stateMutability": "nonpayable",
      "type": "function"
    },
    {
      "constant": false,
      "inputs": [
        {
          "name": "seller",
          "type": "address"
        }
      ],
      "name": "receiveFunds",
      "outputs": [],
      "payable": true,
      "stateMutability": "payable",
      "type": "function"
    },
    {
      "constant": false,
      "inputs": [
        {
          "name": "txIndex",
          "type": "uint256"
        }
      ],
      "name": "completeTransaction",
      "outputs": [],
      "payable": false,
      "stateMutability": "nonpayable",
      "type": "function"
    },
    {
      "constant": false,
      "inputs": [
        {
          "name": "txIndex",
          "type": "uint256"
        }
      ],
      "name": "refundTransaction",
      "outputs": [],
      "payable": false,
      "stateMutability": "nonpayable",
      "type": "function"
    }
  ],
  "bytecode": "0x60806040526000600255336000806101000a81548173ffffffffffffffffffffffffffffffffffffffff021916908373ffffffffffffffffffffffffffffffffffffffff16021790555033600160006101000a81548173ffffffffffffffffffffffffffffffffffffffff021916908373ffffffffffffffffffffffffffffffffffffffff160217905550610b1c806100996000396000f3006080604052600436106100a4576000357c0100000000000000000000000000000000000000000000000000000000900463ffffffff1680630b45c6dc146100a657806345f0a44f146100e95780635cef53341461012a5780638da5cb5b14610181578063c912696c146101d8578063cee26ed514610203578063d4e678b814610270578063df8926c61461029d578063f2aa8218146102d3578063f5e83e1714610340575b005b3480156100b257600080fd5b506100e7600480360381019080803573ffffffffffffffffffffffffffffffffffffffff16906020019092919050505061036d565b005b3480156100f557600080fd5b506101146004803603810190808035906020019092919050505061049b565b6040518082815260200191505060405180910390f35b34801561013657600080fd5b5061013f6104b3565b604051808273ffffffffffffffffffffffffffffffffffffffff1673ffffffffffffffffffffffffffffffffffffffff16815260200191505060405180910390f35b34801561018d57600080fd5b506101966104d9565b604051808273ffffffffffffffffffffffffffffffffffffffff1673ffffffffffffffffffffffffffffffffffffffff16815260200191505060405180910390f35b3480156101e457600080fd5b506101ed6104fe565b6040518082815260200191505060405180910390f35b34801561020f57600080fd5b5061022e60048036038101908080359060200190929190505050610504565b604051808273ffffffffffffffffffffffffffffffffffffffff1673ffffffffffffffffffffffffffffffffffffffff16815260200191505060405180910390f35b34801561027c57600080fd5b5061029b60048036038101908080359060200190929190505050610537565b005b6102d1600480360381019080803573ffffffffffffffffffffffffffffffffffffffff1690602001909291905050506106d0565b005b3480156102df57600080fd5b506102fe600480360381019080803590602001909291905050506108e8565b604051808273ffffffffffffffffffffffffffffffffffffffff1673ffffffffffffffffffffffffffffffffffffffff16815260200191505060405180910390f35b34801561034c57600080fd5b5061036b6004803603810190808035906020019092919050505061091b565b005b6000809054906101000a900473ffffffffffffffffffffffffffffffffffffffff1673ffffffffffffffffffffffffffffffffffffffff163373ffffffffffffffffffffffffffffffffffffffff16141515610457576040517f08c379a00000000000000000000000000000000000000000000000000000000081526004018080602001828103825260238152602001807f4f6e6c79205665726966792063616e2063616c6c20746869732066756e63746981526020017f6f6e2e000000000000000000000000000000000000000000000000000000000081525060400191505060405180910390fd5b80600160006101000a81548173ffffffffffffffffffffffffffffffffffffffff021916908373ffffffffffffffffffffffffffffffffffffffff16021790555050565b60036020528060005260406000206000915090505481565b600160009054906101000a900473ffffffffffffffffffffffffffffffffffffffff1681565b6000809054906101000a900473ffffffffffffffffffffffffffffffffffffffff1681565b60025481565b60056020528060005260406000206000915054906101000a900473ffffffffffffffffffffffffffffffffffffffff1681565b60008060009054906101000a900473ffffffffffffffffffffffffffffffffffffffff1673ffffffffffffffffffffffffffffffffffffffff163373ffffffffffffffffffffffffffffffffffffffff16141515610623576040517f08c379a00000000000000000000000000000000000000000000000000000000081526004018080602001828103825260238152602001807f4f6e6c79205665726966792063616e2063616c6c20746869732066756e63746981526020017f6f6e2e000000000000000000000000000000000000000000000000000000000081525060400191505060405180910390fd5b60036000838152602001908152602001600020549050600060036000848152602001908152602001600020819055506004600083815260200190815260200160002060009054906101000a900473ffffffffffffffffffffffffffffffffffffffff1673ffffffffffffffffffffffffffffffffffffffff166108fc829081150290604051600060405180830381858888f193505050501580156106cb573d6000803e3d6000fd5b505050565b600080600034111515610771576040517f08c379a00000000000000000000000000000000000000000000000000000000081526004018080602001828103825260258152602001807f596f75206d7573742073656e6420736f6d652045544820746f2074686973206d81526020017f6574686f6400000000000000000000000000000000000000000000000000000081525060400191505060405180910390fd5b61077c346064610ab4565b9150813403905061078c82610aca565b9150600160009054906101000a900473ffffffffffffffffffffffffffffffffffffffff1673ffffffffffffffffffffffffffffffffffffffff166108fc839081150290604051600060405180830381858888f193505050501580156107f6573d6000803e3d6000fd5b506108166003600060025481526020019081526020016000205482610ad4565b600360006002548152602001908152602001600020819055503360046000600254815260200190815260200160002060006101000a81548173ffffffffffffffffffffffffffffffffffffffff021916908373ffffffffffffffffffffffffffffffffffffffff1602179055508260056000600254815260200190815260200160002060006101000a81548173ffffffffffffffffffffffffffffffffffffffff021916908373ffffffffffffffffffffffffffffffffffffffff160217905550600160025401600281905550505050565b60046020528060005260406000206000915054906101000a900473ffffffffffffffffffffffffffffffffffffffff1681565b60008060009054906101000a900473ffffffffffffffffffffffffffffffffffffffff1673ffffffffffffffffffffffffffffffffffffffff163373ffffffffffffffffffffffffffffffffffffffff16141515610a07576040517f08c379a00000000000000000000000000000000000000000000000000000000081526004018080602001828103825260238152602001807f4f6e6c79205665726966792063616e2063616c6c20746869732066756e63746981526020017f6f6e2e000000000000000000000000000000000000000000000000000000000081525060400191505060405180910390fd5b60036000838152602001908152602001600020549050600060036000848152602001908152602001600020819055506005600083815260200190815260200160002060009054906101000a900473ffffffffffffffffffffffffffffffffffffffff1673ffffffffffffffffffffffffffffffffffffffff166108fc829081150290604051600060405180830381858888f19350505050158015610aaf573d6000803e3d6000fd5b505050565b60008183811515610ac157fe5b04905092915050565b6000819050919050565b60008183019050828110151515610ae757fe5b809050929150505600a165627a7a72305820b32091e2975ac11032b543cdaf8095de241f8c87eb293a46e789ca951b5f0eba0029",
  "source": "pragma solidity ^0.4.22;\n\nimport '../node_modules/openzeppelin-solidity/contracts/math/SafeMath.sol';\n\ncontract Purchase {\n    address public owner;\n    // This wallet receives the transaction fees:\n    address public verifyWallet;\n    \n    // Tracks combination of (txId, amount, buyer, seller)\n    uint256 public curIndex = 0;\n    mapping(uint256 => uint256) public amounts;\n    mapping(uint256 => address) public buyers;\n    mapping(uint256 => address) public sellers;\n\n    modifier onlyOwner {\n        require(\n            msg.sender == owner,\n            \"Only Verify can call this function.\"\n        );\n        _;\n    }\n\n    constructor () public payable {\n        owner = msg.sender;\n        verifyWallet = msg.sender;\n    }\n\n    // Sets the destination wallet for transaction fees\n    function setVerifyWallet(address newWallet) public onlyOwner {\n        verifyWallet = newWallet;\n    }\n\n    // Fallback function to accept ETH into contract.\n    function() public payable {\n    }\n\n    function receiveFunds(address seller) public payable {\n        require(msg.value > 0, \"You must send some ETH to this method\");\n        \n        // Deduct transaction fee in CRED\n        uint transactionFee = SafeMath.div(msg.value, 100);\n        uint payment = msg.value - transactionFee;\n        transactionFee = toCredToken(transactionFee);\n        verifyWallet.transfer(transactionFee);\n\n        // Store transaction\n        amounts[curIndex] = SafeMath.add(amounts[curIndex], payment);    \n        buyers[curIndex] = msg.sender;\n        sellers[curIndex] = seller;\n        curIndex = curIndex + 1;\n    }\n\n    function completeTransaction (uint256 txIndex) public onlyOwner {\n        uint256 amount = amounts[txIndex];\n        amounts[txIndex] = 0;\n        \n        sellers[txIndex].transfer(amount);\n    }\n\n    function refundTransaction (uint256 txIndex) public onlyOwner {\n        uint256 amount = amounts[txIndex];\n        amounts[txIndex] = 0;\n        \n        buyers[txIndex].transfer(amount);\n    }\n\n    function toDaiToken (uint amountInEther) pure\n        private\n        returns (uint amountInDai)\n    {\n        /**\n         * Bancor does not support conversion to DAI on Ropsten\n         * See: https://goo.gl/cQkrvL \n         **/\n        return amountInEther;\n    }\n\n    function toCredToken (uint amountInEther) pure\n        private\n        returns (uint amountInCred)\n    {\n        /** \n         * ETH to CRED conversion takes place external to this \n         * smart contract through a batch-conversion script\n         * that runs regularly \n         **/\n        return amountInEther;\n    }\n}",
  "sourcePath": "/home/paper/Desktop/verify/_eth_/contract/contracts/Purchase.sol",
  "compiler": {
    "name": "solc",
    "version": "0.4.24+commit.e67f0147.Emscripten.clang"
  },
  "schemaVersion": "2.0.1",
  "updatedAt": "2018-10-20T09:46:36.587Z"
}