{
  "contractName": "Purchase",
  "abi": [
    {
      "constant": true,
      "inputs": [],
      "name": "seller",
      "outputs": [
        {
          "name": "",
          "type": "address"
        }
      ],
      "payable": false,
      "stateMutability": "view",
      "type": "function"
    },
    {
      "constant": true,
      "inputs": [],
      "name": "creditCeiling",
      "outputs": [
        {
          "name": "",
          "type": "uint256"
        }
      ],
      "payable": false,
      "stateMutability": "view",
      "type": "function"
    },
    {
      "constant": true,
      "inputs": [],
      "name": "verifyEscrow",
      "outputs": [
        {
          "name": "",
          "type": "address"
        }
      ],
      "payable": false,
      "stateMutability": "view",
      "type": "function"
    },
    {
      "constant": true,
      "inputs": [],
      "name": "buyer",
      "outputs": [
        {
          "name": "",
          "type": "address"
        }
      ],
      "payable": false,
      "stateMutability": "view",
      "type": "function"
    },
    {
      "constant": true,
      "inputs": [],
      "name": "moneyInEscrow",
      "outputs": [
        {
          "name": "",
          "type": "uint256"
        }
      ],
      "payable": false,
      "stateMutability": "view",
      "type": "function"
    },
    {
      "constant": true,
      "inputs": [],
      "name": "verify",
      "outputs": [
        {
          "name": "",
          "type": "address"
        }
      ],
      "payable": false,
      "stateMutability": "view",
      "type": "function"
    },
    {
      "inputs": [
        {
          "name": "addressSeller",
          "type": "address"
        }
      ],
      "payable": true,
      "stateMutability": "payable",
      "type": "constructor"
    },
    {
      "payable": true,
      "stateMutability": "payable",
      "type": "fallback"
    },
    {
      "constant": false,
      "inputs": [
        {
          "name": "ceiling",
          "type": "uint256"
        }
      ],
      "name": "setCreditCeiling",
      "outputs": [],
      "payable": false,
      "stateMutability": "nonpayable",
      "type": "function"
    },
    {
      "constant": false,
      "inputs": [],
      "name": "sendFundsToVerify",
      "outputs": [],
      "payable": true,
      "stateMutability": "payable",
      "type": "function"
    },
    {
      "constant": false,
      "inputs": [],
      "name": "sendFundsToSeller",
      "outputs": [],
      "payable": true,
      "stateMutability": "payable",
      "type": "function"
    },
    {
      "constant": false,
      "inputs": [],
      "name": "refundFromVerify",
      "outputs": [],
      "payable": true,
      "stateMutability": "payable",
      "type": "function"
    }
  ],
  "bytecode": "0x608060405273c5fdf4076b8f3a5357c5e395ab970b5b54098fef600260006101000a81548173ffffffffffffffffffffffffffffffffffffffff021916908373ffffffffffffffffffffffffffffffffffffffff16021790555073821aea9a577a9b44299b9c15c88cf3087f3b5544600360006101000a81548173ffffffffffffffffffffffffffffffffffffffff021916908373ffffffffffffffffffffffffffffffffffffffff16021790555060006004556000600555604051602080610aea83398101806040528101908080519060200190929190505050336000806101000a81548173ffffffffffffffffffffffffffffffffffffffff021916908373ffffffffffffffffffffffffffffffffffffffff16021790555080600160006101000a81548173ffffffffffffffffffffffffffffffffffffffff021916908373ffffffffffffffffffffffffffffffffffffffff1602179055505061097f8061016b6000396000f3006080604052600436106100a4576000357c0100000000000000000000000000000000000000000000000000000000900463ffffffff16806308551a53146100a65780630a30dfc9146100fd57806310a441c91461012857806364e8b4eb1461017f5780637043c8b0146101895780637150d8ae146101b657806392358fc41461020d57806396c7a3bc14610238578063e7d58efe14610242578063fc735e991461024c575b005b3480156100b257600080fd5b506100bb6102a3565b604051808273ffffffffffffffffffffffffffffffffffffffff1673ffffffffffffffffffffffffffffffffffffffff16815260200191505060405180910390f35b34801561010957600080fd5b506101126102c9565b6040518082815260200191505060405180910390f35b34801561013457600080fd5b5061013d6102cf565b604051808273ffffffffffffffffffffffffffffffffffffffff1673ffffffffffffffffffffffffffffffffffffffff16815260200191505060405180910390f35b6101876102f5565b005b34801561019557600080fd5b506101b46004803603810190808035906020019092919050505061045b565b005b3480156101c257600080fd5b506101cb610550565b604051808273ffffffffffffffffffffffffffffffffffffffff1673ffffffffffffffffffffffffffffffffffffffff16815260200191505060405180910390f35b34801561021957600080fd5b50610222610575565b6040518082815260200191505060405180910390f35b61024061057b565b005b61024a610782565b005b34801561025857600080fd5b506102616108e7565b604051808273ffffffffffffffffffffffffffffffffffffffff1673ffffffffffffffffffffffffffffffffffffffff16815260200191505060405180910390f35b600160009054906101000a900473ffffffffffffffffffffffffffffffffffffffff1681565b60045481565b600360009054906101000a900473ffffffffffffffffffffffffffffffffffffffff1681565b6000600360009054906101000a900473ffffffffffffffffffffffffffffffffffffffff1673ffffffffffffffffffffffffffffffffffffffff163373ffffffffffffffffffffffffffffffffffffffff161415156103e2576040517f08c379a00000000000000000000000000000000000000000000000000000000081526004018080602001828103825260368152602001807f4f6e6c79207468652056657269667920657363726f77206163636f756e74206381526020017f616e2063616c6c20746869732066756e6374696f6e2e0000000000000000000081525060400191505060405180910390fd5b60055490506000600581905550600160009054906101000a900473ffffffffffffffffffffffffffffffffffffffff1673ffffffffffffffffffffffffffffffffffffffff166108fc829081150290604051600060405180830381858888f19350505050158015610457573d6000803e3d6000fd5b5050565b600360009054906101000a900473ffffffffffffffffffffffffffffffffffffffff1673ffffffffffffffffffffffffffffffffffffffff163373ffffffffffffffffffffffffffffffffffffffff16141515610546576040517f08c379a00000000000000000000000000000000000000000000000000000000081526004018080602001828103825260368152602001807f4f6e6c79207468652056657269667920657363726f77206163636f756e74206381526020017f616e2063616c6c20746869732066756e6374696f6e2e0000000000000000000081525060400191505060405180910390fd5b8060048190555050565b6000809054906101000a900473ffffffffffffffffffffffffffffffffffffffff1681565b60055481565b60008061058934606461090d565b9150813403905061059982610923565b9150600260009054906101000a900473ffffffffffffffffffffffffffffffffffffffff1673ffffffffffffffffffffffffffffffffffffffff166108fc839081150290604051600060405180830381858888f19350505050158015610603573d6000803e3d6000fd5b506004548111151561067d57600160009054906101000a900473ffffffffffffffffffffffffffffffffffffffff1673ffffffffffffffffffffffffffffffffffffffff166108fc829081150290604051600060405180830381858888f19350505050158015610677573d6000803e3d6000fd5b5061077e565b600060045411156106f457600160009054906101000a900473ffffffffffffffffffffffffffffffffffffffff1673ffffffffffffffffffffffffffffffffffffffff166108fc6004549081150290604051600060405180830381858888f193505050501580156106f2573d6000803e3d6000fd5b505b61070c600554610707600454840361092d565b610937565b600581905550600360009054906101000a900473ffffffffffffffffffffffffffffffffffffffff1673ffffffffffffffffffffffffffffffffffffffff166108fc6005549081150290604051600060405180830381858888f1935050505015801561077c573d6000803e3d6000fd5b505b5050565b6000600360009054906101000a900473ffffffffffffffffffffffffffffffffffffffff1673ffffffffffffffffffffffffffffffffffffffff163373ffffffffffffffffffffffffffffffffffffffff1614151561086f576040517f08c379a00000000000000000000000000000000000000000000000000000000081526004018080602001828103825260368152602001807f4f6e6c79207468652056657269667920657363726f77206163636f756e74206381526020017f616e2063616c6c20746869732066756e6374696f6e2e0000000000000000000081525060400191505060405180910390fd5b600554905060006005819055506000809054906101000a900473ffffffffffffffffffffffffffffffffffffffff1673ffffffffffffffffffffffffffffffffffffffff166108fc829081150290604051600060405180830381858888f193505050501580156108e3573d6000803e3d6000fd5b5050565b600260009054906101000a900473ffffffffffffffffffffffffffffffffffffffff1681565b6000818381151561091a57fe5b04905092915050565b6000819050919050565b6000819050919050565b6000818301905082811015151561094a57fe5b809050929150505600a165627a7a72305820d8107ed5ccd402bace770645c52f7eba1664c95253b79b7a220953f96ef7ce940029",
  "source": "pragma solidity ^0.4.22;\n\nimport '../node_modules/openzeppelin-solidity/contracts/math/SafeMath.sol';\n\ncontract Purchase {\n\n    address public buyer;\n    address public seller;\n    address public verify = 0xc5fdf4076b8f3a5357c5e395ab970b5b54098fef;\n    address public verifyEscrow = 0x821aea9a577a9b44299b9c15c88cf3087f3b5544;\n    uint public creditCeiling = 0;\n    uint public moneyInEscrow = 0;\n\n    modifier onlyVerifyEscrow {\n        require(\n            msg.sender == verifyEscrow,\n            \"Only the Verify escrow account can call this function.\"\n        );\n        _;\n    }\n\n    constructor (address addressSeller) public payable {\n        buyer = msg.sender;\n        seller = addressSeller;\n    }\n\n    // Fallback function to accept ETH into contract.\n    function() public payable {\n    }\n\n    function setCreditCeiling (uint ceiling) external onlyVerifyEscrow {\n        creditCeiling = ceiling;\n    }\n\n    function sendFundsToVerify () public payable {\n        uint transactionFee = SafeMath.div(msg.value, 100);\n        uint payment = msg.value - transactionFee;\n\n        transactionFee = toCredToken(transactionFee);\n        verify.transfer(transactionFee);\n\n        if (payment <= creditCeiling) {\n            seller.transfer(payment);\n        } else {\n            if (creditCeiling > 0) {\n                seller.transfer(creditCeiling);\n            }\n            moneyInEscrow = SafeMath.add(moneyInEscrow, toDaiToken(payment - creditCeiling));\n\n            verifyEscrow.transfer(moneyInEscrow);\n        }\n    }\n\n    function sendFundsToSeller () public payable onlyVerifyEscrow {\n        uint moneyTransfer = moneyInEscrow;\n        moneyInEscrow = 0;\n\n        seller.transfer(moneyTransfer);\n    }\n\n    function refundFromVerify () public payable onlyVerifyEscrow {\n        uint moneyTransfer = moneyInEscrow;\n        moneyInEscrow = 0;\n\n        buyer.transfer(moneyTransfer);\n    }\n\n    function toDaiToken (uint amountInEther)\n        private\n        returns (uint amountInDai)\n    {\n        /* Bancor doesn't support conversion to DAI on Ropsten \n           See: https://goo.gl/cQkrvL */\n        return amountInEther;\n    }\n\n    function toCredToken (uint amountInEther)\n        private\n        returns (uint amountInCred)\n    {\n        /* ETH to CRED conversion takes place external to this \n           smart contract through a batch-conversion script\n           that runs regularly */\n        return amountInEther;\n    }\n}",
  "sourcePath": "/home/paper/Desktop/verify/_eth_/contract/contracts/Purchase.sol",
  "compiler": {
    "name": "solc",
    "version": "0.4.24+commit.e67f0147.Emscripten.clang"
  },
  "schemaVersion": "2.0.1",
  "updatedAt": "2018-10-07T19:17:59.464Z"
}