{
  "contractName": "Purchase",
  "abi": [
    {
      "constant": true,
      "inputs": [],
      "name": "seller",
      "outputs": [
        {
          "name": "",
          "type": "address"
        }
      ],
      "payable": false,
      "stateMutability": "view",
      "type": "function"
    },
    {
      "constant": true,
      "inputs": [],
      "name": "verifyEscrow",
      "outputs": [
        {
          "name": "",
          "type": "address"
        }
      ],
      "payable": false,
      "stateMutability": "view",
      "type": "function"
    },
    {
      "constant": true,
      "inputs": [],
      "name": "buyer",
      "outputs": [
        {
          "name": "",
          "type": "address"
        }
      ],
      "payable": false,
      "stateMutability": "view",
      "type": "function"
    },
    {
      "constant": true,
      "inputs": [],
      "name": "verify",
      "outputs": [
        {
          "name": "",
          "type": "address"
        }
      ],
      "payable": false,
      "stateMutability": "view",
      "type": "function"
    },
    {
      "inputs": [
        {
          "name": "addressSeller",
          "type": "address"
        },
        {
          "name": "p",
          "type": "uint256"
        }
      ],
      "payable": true,
      "stateMutability": "payable",
      "type": "constructor"
    },
    {
      "payable": true,
      "stateMutability": "payable",
      "type": "fallback"
    },
    {
      "constant": false,
      "inputs": [],
      "name": "collect",
      "outputs": [],
      "payable": false,
      "stateMutability": "nonpayable",
      "type": "function"
    },
    {
      "constant": false,
      "inputs": [
        {
          "name": "ceiling",
          "type": "uint256"
        }
      ],
      "name": "setCreditCeiling",
      "outputs": [],
      "payable": false,
      "stateMutability": "nonpayable",
      "type": "function"
    },
    {
      "constant": false,
      "inputs": [],
      "name": "sendFundsToVerify",
      "outputs": [
        {
          "name": "completed",
          "type": "bool"
        }
      ],
      "payable": true,
      "stateMutability": "payable",
      "type": "function"
    },
    {
      "constant": false,
      "inputs": [],
      "name": "sendFundsToSeller",
      "outputs": [
        {
          "name": "completed",
          "type": "bool"
        }
      ],
      "payable": true,
      "stateMutability": "payable",
      "type": "function"
    },
    {
      "constant": false,
      "inputs": [],
      "name": "refundFromSeller",
      "outputs": [
        {
          "name": "completed",
          "type": "bool"
        }
      ],
      "payable": true,
      "stateMutability": "payable",
      "type": "function"
    },
    {
      "constant": false,
      "inputs": [],
      "name": "refundFromVerify",
      "outputs": [
        {
          "name": "completed",
          "type": "bool"
        }
      ],
      "payable": true,
      "stateMutability": "payable",
      "type": "function"
    }
  ],
  "bytecode": "0x608060405260006004556000600555600060065560006007556000600855604051604080610dda8339810180604052810190808051906020019092919080519060200190929190505050336000806101000a81548173ffffffffffffffffffffffffffffffffffffffff021916908373ffffffffffffffffffffffffffffffffffffffff16021790555081600160006101000a81548173ffffffffffffffffffffffffffffffffffffffff021916908373ffffffffffffffffffffffffffffffffffffffff160217905550806005819055505050610cf8806100e26000396000f3006080604052600436106100a4576000357c0100000000000000000000000000000000000000000000000000000000900463ffffffff16806308551a53146100b857806310a441c91461010f57806319e94e9e1461016657806364e8b4eb146101885780637043c8b0146101aa5780637150d8ae146101d757806396c7a3bc1461022e578063e522538114610250578063e7d58efe14610267578063fc735e9914610289575b6100b0600854346102e0565b600881905550005b3480156100c457600080fd5b506100cd6102fc565b604051808273ffffffffffffffffffffffffffffffffffffffff1673ffffffffffffffffffffffffffffffffffffffff16815260200191505060405180910390f35b34801561011b57600080fd5b50610124610322565b604051808273ffffffffffffffffffffffffffffffffffffffff1673ffffffffffffffffffffffffffffffffffffffff16815260200191505060405180910390f35b61016e610348565b604051808215151515815260200191505060405180910390f35b6101906104ae565b604051808215151515815260200191505060405180910390f35b3480156101b657600080fd5b506101d560048036038101908080359060200190929190505050610622565b005b3480156101e357600080fd5b506101ec610717565b604051808273ffffffffffffffffffffffffffffffffffffffff1673ffffffffffffffffffffffffffffffffffffffff16815260200191505060405180910390f35b61023661073c565b604051808215151515815260200191505060405180910390f35b34801561025c57600080fd5b50610265610985565b005b61026f610af1565b604051808215151515815260200191505060405180910390f35b34801561029557600080fd5b5061029e610c57565b604051808273ffffffffffffffffffffffffffffffffffffffff1673ffffffffffffffffffffffffffffffffffffffff16815260200191505060405180910390f35b600081830190508281101515156102f357fe5b80905092915050565b600160009054906101000a900473ffffffffffffffffffffffffffffffffffffffff1681565b600360009054906101000a900473ffffffffffffffffffffffffffffffffffffffff1681565b6000600160009054906101000a900473ffffffffffffffffffffffffffffffffffffffff1673ffffffffffffffffffffffffffffffffffffffff163373ffffffffffffffffffffffffffffffffffffffff16141515610435576040517f08c379a00000000000000000000000000000000000000000000000000000000081526004018080602001828103825260278152602001807f4f6e6c79207468652073656c6c65722063616e2063616c6c207468697320667581526020017f6e6374696f6e2e0000000000000000000000000000000000000000000000000081525060400191505060405180910390fd5b6000809054906101000a900473ffffffffffffffffffffffffffffffffffffffff1673ffffffffffffffffffffffffffffffffffffffff166108fc6006549081150290604051600060405180830381858888f1935050505015801561049e573d6000803e3d6000fd5b5060006006819055506001905090565b6000600260009054906101000a900473ffffffffffffffffffffffffffffffffffffffff1673ffffffffffffffffffffffffffffffffffffffff163373ffffffffffffffffffffffffffffffffffffffff1614151561059b576040517f08c379a00000000000000000000000000000000000000000000000000000000081526004018080602001828103825260238152602001807f4f6e6c79205665726966792063616e2063616c6c20746869732066756e63746981526020017f6f6e2e000000000000000000000000000000000000000000000000000000000081525060400191505060405180910390fd5b600160009054906101000a900473ffffffffffffffffffffffffffffffffffffffff1673ffffffffffffffffffffffffffffffffffffffff166108fc6007549081150290604051600060405180830381858888f19350505050158015610605573d6000803e3d6000fd5b506007546006540160068190555060006007819055506001905090565b600260009054906101000a900473ffffffffffffffffffffffffffffffffffffffff1673ffffffffffffffffffffffffffffffffffffffff163373ffffffffffffffffffffffffffffffffffffffff1614151561070d576040517f08c379a00000000000000000000000000000000000000000000000000000000081526004018080602001828103825260238152602001807f4f6e6c79205665726966792063616e2063616c6c20746869732066756e63746981526020017f6f6e2e000000000000000000000000000000000000000000000000000000000081525060400191505060405180910390fd5b8060048190555050565b6000809054906101000a900473ffffffffffffffffffffffffffffffffffffffff1681565b6000806000610749610c7d565b91506107553483610c8f565b905060055481101561076a5760009250610980565b61077382610ca8565b9150600260009054906101000a900473ffffffffffffffffffffffffffffffffffffffff1673ffffffffffffffffffffffffffffffffffffffff166108fc839081150290604051600060405180830381858888f193505050501580156107dd573d6000803e3d6000fd5b506004548111151561086257600160009054906101000a900473ffffffffffffffffffffffffffffffffffffffff1673ffffffffffffffffffffffffffffffffffffffff166108fc829081150290604051600060405180830381858888f19350505050158015610851573d6000803e3d6000fd5b50806006540160068190555061097b565b80600454101561097a57600060045411156108f057600160009054906101000a900473ffffffffffffffffffffffffffffffffffffffff1673ffffffffffffffffffffffffffffffffffffffff166108fc6004549081150290604051600060405180830381858888f193505050501580156108e1573d6000803e3d6000fd5b50600454600654016006819055505b6109046108ff82600454610c8f565b610caf565b60075401600781905550600360009054906101000a900473ffffffffffffffffffffffffffffffffffffffff1673ffffffffffffffffffffffffffffffffffffffff166108fc6007549081150290604051600060405180830381858888f19350505050158015610978573d6000803e3d6000fd5b505b5b600192505b505090565b600260009054906101000a900473ffffffffffffffffffffffffffffffffffffffff1673ffffffffffffffffffffffffffffffffffffffff163373ffffffffffffffffffffffffffffffffffffffff16141515610a70576040517f08c379a00000000000000000000000000000000000000000000000000000000081526004018080602001828103825260238152602001807f4f6e6c79205665726966792063616e2063616c6c20746869732066756e63746981526020017f6f6e2e000000000000000000000000000000000000000000000000000000000081525060400191505060405180910390fd5b60006008541115610aef57600260009054906101000a900473ffffffffffffffffffffffffffffffffffffffff1673ffffffffffffffffffffffffffffffffffffffff166108fc6008549081150290604051600060405180830381858888f19350505050158015610ae5573d6000803e3d6000fd5b5060006008819055505b565b6000600260009054906101000a900473ffffffffffffffffffffffffffffffffffffffff1673ffffffffffffffffffffffffffffffffffffffff163373ffffffffffffffffffffffffffffffffffffffff16141515610bde576040517f08c379a00000000000000000000000000000000000000000000000000000000081526004018080602001828103825260238152602001807f4f6e6c79205665726966792063616e2063616c6c20746869732066756e63746981526020017f6f6e2e000000000000000000000000000000000000000000000000000000000081525060400191505060405180910390fd5b6000809054906101000a900473ffffffffffffffffffffffffffffffffffffffff1673ffffffffffffffffffffffffffffffffffffffff166108fc6007549081150290604051600060405180830381858888f19350505050158015610c47573d6000803e3d6000fd5b5060006007819055506001905090565b600260009054906101000a900473ffffffffffffffffffffffffffffffffffffffff1681565b6000610c8a346064610cb6565b905090565b6000828211151515610c9d57fe5b818303905092915050565b6000919050565b6000919050565b60008183811515610cc357fe5b049050929150505600a165627a7a72305820737ebeb855780ebbbb35082ce339d58ed03505ad84475fcf859cf4995be935eb0029",
  "source": "pragma solidity ^0.4.22;\r\n\r\n//import 'https://github.com/verifyas/contract/contracts/CREDToken.sol';\r\nimport '../node_modules/openzeppelin-solidity/contracts/math/SafeMath.sol';\r\n\r\ncontract Purchase {\r\n\r\n    address public buyer;\r\n    address public seller;\r\n    address public verify; // TODO: Set to Verify Ethereum address\r\n    address public verifyEscrow; // TODO: Set to Verify Escrow Account Ethereum Address\r\n    uint private creditCeiling = 0;\r\n    uint private price = 0;\r\n    uint private paid = 0;\r\n    uint private moneyInEscrow = 0;\r\n    uint private collectedEther = 0;\r\n\r\n    modifier onlyVerify {\r\n        require(\r\n            msg.sender == verify,\r\n            \"Only Verify can call this function.\"\r\n        );\r\n        _;\r\n    }\r\n\r\n    modifier onlyBuyer {\r\n        require(\r\n            msg.sender == buyer,\r\n            \"Only the buyer can call this function.\"\r\n        );\r\n        _;\r\n    }\r\n\r\n    modifier onlySeller {\r\n        require(\r\n            msg.sender == seller,\r\n            \"Only the seller can call this function.\"\r\n        );\r\n        _;\r\n    }\r\n\r\n    constructor (address addressSeller, uint p) public payable {\r\n        buyer = msg.sender;\r\n        seller = addressSeller;\r\n        price = p;\r\n    }\r\n\r\n    function() external payable {\r\n        collectedEther = SafeMath.add(collectedEther, msg.value); \r\n    }\r\n\r\n    function collect () external onlyVerify {\r\n        if (collectedEther > 0) {\r\n            verify.transfer(collectedEther);\r\n            collectedEther = 0;\r\n        }\r\n    }\r\n\r\n    function setCreditCeiling (uint ceiling) external onlyVerify {\r\n        creditCeiling = ceiling;\r\n    }\r\n\r\n    function sendFundsToVerify ()\r\n        public\r\n        payable\r\n        returns (bool completed)\r\n    {\r\n        uint transactionFee = getTransactionFee();\r\n        uint payment = SafeMath.sub(msg.value, transactionFee);\r\n\r\n        if (payment < price) {\r\n            return false;\r\n        }\r\n\r\n        transactionFee = toCredToken(transactionFee);\r\n        verify.transfer(transactionFee);\r\n\r\n        if (payment <= creditCeiling) {\r\n            seller.transfer(payment);\r\n            paid = paid + payment;\r\n        } else if (creditCeiling < payment) {\r\n            if (creditCeiling > 0) {\r\n                seller.transfer(creditCeiling);\r\n                paid = paid + creditCeiling;\r\n            }\r\n            moneyInEscrow = moneyInEscrow + toDaiToken(SafeMath.sub(payment, creditCeiling));\r\n            verifyEscrow.transfer(moneyInEscrow);\r\n        }\r\n        return true;\r\n    }\r\n\r\n    function sendFundsToSeller ()\r\n        public\r\n        payable\r\n        onlyVerify\r\n        returns (bool completed)\r\n    {\r\n        seller.transfer(moneyInEscrow);\r\n        paid = paid + moneyInEscrow;\r\n        moneyInEscrow = 0;\r\n        return true;\r\n    }\r\n\r\n    // Note: Transaction fee is non-refundable.\r\n    function refundFromSeller ()\r\n        public\r\n        payable\r\n        onlySeller\r\n        returns (bool completed)\r\n    {\r\n        buyer.transfer(paid);\r\n        paid = 0;\r\n        return true;\r\n    }\r\n\r\n    function refundFromVerify ()\r\n        public\r\n        payable\r\n        onlyVerify\r\n        returns (bool completed)\r\n    {\r\n        buyer.transfer(moneyInEscrow);\r\n        moneyInEscrow = 0;\r\n        return true;\r\n    }\r\n\r\n    // Note: For v1, we will only take 1% of the transaction as 'insurance' fee.\r\n    // In the future, we will use an algorithm to calculate the 'insurance' fee,\r\n    // taking into account the reputation of both parties involved.\r\n    function getTransactionFee ()\r\n        private\r\n        returns (uint transactionFee)\r\n    {\r\n        return SafeMath.div(msg.value, 100);\r\n    }\r\n\r\n    function toDaiToken (uint amountInEther)\r\n        private\r\n        returns (uint amountInDai)\r\n    {\r\n    }\r\n\r\n    function toCredToken (uint amountInEther)\r\n        private\r\n        returns (uint amountInCred)\r\n    {\r\n    }\r\n}",
  "sourcePath": "C:\\Users\\ricky_000\\Documents\\GitHub\\ethereum-smart-contract\\contracts\\Purchase.sol",
  "compiler": {
    "name": "solc",
    "version": "0.4.24+commit.e67f0147.Emscripten.clang"
  },
  "schemaVersion": "2.0.1",
  "updatedAt": "2018-07-10T20:12:07.540Z"
}