{
  "contractName": "Purchase",
  "abi": [
    {
      "constant": true,
      "inputs": [],
      "name": "seller",
      "outputs": [
        {
          "name": "",
          "type": "address"
        }
      ],
      "payable": false,
      "stateMutability": "view",
      "type": "function"
    },
    {
      "constant": true,
      "inputs": [],
      "name": "verifyEscrow",
      "outputs": [
        {
          "name": "",
          "type": "address"
        }
      ],
      "payable": false,
      "stateMutability": "view",
      "type": "function"
    },
    {
      "constant": true,
      "inputs": [],
      "name": "buyer",
      "outputs": [
        {
          "name": "",
          "type": "address"
        }
      ],
      "payable": false,
      "stateMutability": "view",
      "type": "function"
    },
    {
      "constant": true,
      "inputs": [],
      "name": "verify",
      "outputs": [
        {
          "name": "",
          "type": "address"
        }
      ],
      "payable": false,
      "stateMutability": "view",
      "type": "function"
    },
    {
      "inputs": [
        {
          "name": "addressSeller",
          "type": "address"
        }
      ],
      "payable": true,
      "stateMutability": "payable",
      "type": "constructor"
    },
    {
      "payable": true,
      "stateMutability": "payable",
      "type": "fallback"
    },
    {
      "constant": false,
      "inputs": [],
      "name": "collect",
      "outputs": [],
      "payable": false,
      "stateMutability": "nonpayable",
      "type": "function"
    },
    {
      "constant": false,
      "inputs": [
        {
          "name": "creditCeiling",
          "type": "uint256"
        }
      ],
      "name": "sendFundsToVerify",
      "outputs": [],
      "payable": true,
      "stateMutability": "payable",
      "type": "function"
    },
    {
      "constant": false,
      "inputs": [],
      "name": "sendFundsToSeller",
      "outputs": [],
      "payable": true,
      "stateMutability": "payable",
      "type": "function"
    },
    {
      "constant": false,
      "inputs": [],
      "name": "refund",
      "outputs": [],
      "payable": true,
      "stateMutability": "payable",
      "type": "function"
    }
  ],
  "bytecode": "0x6080604052600060045560006005556000600655604051602080610b6183398101806040528101908080519060200190929190505050336000806101000a81548173ffffffffffffffffffffffffffffffffffffffff021916908373ffffffffffffffffffffffffffffffffffffffff16021790555080600160006101000a81548173ffffffffffffffffffffffffffffffffffffffff021916908373ffffffffffffffffffffffffffffffffffffffff16021790555050610a9b806100c66000396000f30060806040526004361061008e576000357c0100000000000000000000000000000000000000000000000000000000900463ffffffff16806308551a53146100a25780630ca9cc51146100f957806310a441c914610119578063590e1ae31461017057806364e8b4eb1461017a5780637150d8ae14610184578063e5225381146101db578063fc735e99146101f2575b61009a60065434610249565b600681905550005b3480156100ae57600080fd5b506100b7610265565b604051808273ffffffffffffffffffffffffffffffffffffffff1673ffffffffffffffffffffffffffffffffffffffff16815260200191505060405180910390f35b6101176004803603810190808035906020019092919050505061028b565b005b34801561012557600080fd5b5061012e61058c565b604051808273ffffffffffffffffffffffffffffffffffffffff1673ffffffffffffffffffffffffffffffffffffffff16815260200191505060405180910390f35b6101786105b2565b005b610182610709565b005b34801561019057600080fd5b50610199610869565b604051808273ffffffffffffffffffffffffffffffffffffffff1673ffffffffffffffffffffffffffffffffffffffff16815260200191505060405180910390f35b3480156101e757600080fd5b506101f061088e565b005b3480156101fe57600080fd5b506102076109fa565b604051808273ffffffffffffffffffffffffffffffffffffffff1673ffffffffffffffffffffffffffffffffffffffff16815260200191505060405180910390f35b6000818301905082811015151561025c57fe5b80905092915050565b600160009054906101000a900473ffffffffffffffffffffffffffffffffffffffff1681565b60008060009054906101000a900473ffffffffffffffffffffffffffffffffffffffff1673ffffffffffffffffffffffffffffffffffffffff163373ffffffffffffffffffffffffffffffffffffffff16141515610377576040517f08c379a00000000000000000000000000000000000000000000000000000000081526004018080602001828103825260268152602001807f4f6e6c79207468652062757965722063616e2063616c6c20746869732066756e81526020017f6374696f6e2e000000000000000000000000000000000000000000000000000081525060400191505060405180910390fd5b61037f610a20565b905061038b3482610a32565b60048190555061039a81610a4b565b9050600260009054906101000a900473ffffffffffffffffffffffffffffffffffffffff1673ffffffffffffffffffffffffffffffffffffffff166108fc829081150290604051600060405180830381858888f19350505050158015610404573d6000803e3d6000fd5b508160045411151561048057600160009054906101000a900473ffffffffffffffffffffffffffffffffffffffff1673ffffffffffffffffffffffffffffffffffffffff166108fc6004549081150290604051600060405180830381858888f1935050505015801561047a573d6000803e3d6000fd5b50610588565b6004548210156105875760008211156104fd57600160009054906101000a900473ffffffffffffffffffffffffffffffffffffffff1673ffffffffffffffffffffffffffffffffffffffff166108fc839081150290604051600060405180830381858888f193505050501580156104fb573d6000803e3d6000fd5b505b61051161050c60045484610a32565b610a52565b60055401600581905550600360009054906101000a900473ffffffffffffffffffffffffffffffffffffffff1673ffffffffffffffffffffffffffffffffffffffff166108fc6005549081150290604051600060405180830381858888f19350505050158015610585573d6000803e3d6000fd5b505b5b5050565b600360009054906101000a900473ffffffffffffffffffffffffffffffffffffffff1681565b600160009054906101000a900473ffffffffffffffffffffffffffffffffffffffff1673ffffffffffffffffffffffffffffffffffffffff163373ffffffffffffffffffffffffffffffffffffffff1614151561069d576040517f08c379a00000000000000000000000000000000000000000000000000000000081526004018080602001828103825260278152602001807f4f6e6c79207468652073656c6c65722063616e2063616c6c207468697320667581526020017f6e6374696f6e2e0000000000000000000000000000000000000000000000000081525060400191505060405180910390fd5b6000809054906101000a900473ffffffffffffffffffffffffffffffffffffffff1673ffffffffffffffffffffffffffffffffffffffff166108fc6004549081150290604051600060405180830381858888f19350505050158015610706573d6000803e3d6000fd5b50565b600260009054906101000a900473ffffffffffffffffffffffffffffffffffffffff1673ffffffffffffffffffffffffffffffffffffffff163373ffffffffffffffffffffffffffffffffffffffff161415156107f4576040517f08c379a00000000000000000000000000000000000000000000000000000000081526004018080602001828103825260238152602001807f4f6e6c79205665726966792063616e2063616c6c20746869732066756e63746981526020017f6f6e2e000000000000000000000000000000000000000000000000000000000081525060400191505060405180910390fd5b600160009054906101000a900473ffffffffffffffffffffffffffffffffffffffff1673ffffffffffffffffffffffffffffffffffffffff166108fc6005549081150290604051600060405180830381858888f1935050505015801561085e573d6000803e3d6000fd5b506000600581905550565b6000809054906101000a900473ffffffffffffffffffffffffffffffffffffffff1681565b600260009054906101000a900473ffffffffffffffffffffffffffffffffffffffff1673ffffffffffffffffffffffffffffffffffffffff163373ffffffffffffffffffffffffffffffffffffffff16141515610979576040517f08c379a00000000000000000000000000000000000000000000000000000000081526004018080602001828103825260238152602001807f4f6e6c79205665726966792063616e2063616c6c20746869732066756e63746981526020017f6f6e2e000000000000000000000000000000000000000000000000000000000081525060400191505060405180910390fd5b600060065411156109f857600260009054906101000a900473ffffffffffffffffffffffffffffffffffffffff1673ffffffffffffffffffffffffffffffffffffffff166108fc6006549081150290604051600060405180830381858888f193505050501580156109ee573d6000803e3d6000fd5b5060006006819055505b565b600260009054906101000a900473ffffffffffffffffffffffffffffffffffffffff1681565b6000610a2d346064610a59565b905090565b6000828211151515610a4057fe5b818303905092915050565b6000919050565b6000919050565b60008183811515610a6657fe5b049050929150505600a165627a7a7230582070ca1c72b8228d6dc5d9915f2a3879e526920b6a982020f1ffa8d8f6d07c18310029",
  "source": "pragma solidity ^0.4.22;\r\n\r\n//import 'https://github.com/verifyas/contract/contracts/CREDToken.sol';\r\nimport '../node_modules/openzeppelin-solidity/contracts/math/SafeMath.sol';\r\n\r\ncontract Purchase {\r\n\r\n    address public buyer;\r\n    address public seller;\r\n    address public verify; // TODO: Set to Verify Ethereum address\r\n    address public verifyEscrow; // TODO: Set to Verify Escrow Account Ethereum Address\r\n    uint private payment = 0;\r\n    uint private moneyInEscrow = 0;\r\n    uint private collectedEther = 0;\r\n\r\n    modifier onlyVerify {\r\n        require(\r\n            msg.sender == verify,\r\n            \"Only Verify can call this function.\"\r\n        );\r\n        _;\r\n    }\r\n\r\n    modifier onlyBuyer {\r\n        require(\r\n            msg.sender == buyer,\r\n            \"Only the buyer can call this function.\"\r\n        );\r\n        _;\r\n    }\r\n\r\n    modifier onlySeller {\r\n        require(\r\n            msg.sender == seller,\r\n            \"Only the seller can call this function.\"\r\n        );\r\n        _;\r\n    }\r\n\r\n    constructor (address addressSeller) public payable {\r\n        buyer = msg.sender;\r\n        seller = addressSeller;\r\n    }\r\n\r\n    function() external payable {\r\n        collectedEther = SafeMath.add(collectedEther, msg.value); \r\n    }\r\n\r\n    function collect () external onlyVerify {\r\n        if (collectedEther > 0) {\r\n            verify.transfer(collectedEther);\r\n            collectedEther = 0;\r\n        }\r\n    }\r\n\r\n    // TODO: Get creditCeiling from Verify server instead of from buyer\r\n    function sendFundsToVerify (uint creditCeiling) public payable onlyBuyer {\r\n        uint transactionFee = getTransactionFee();\r\n        payment = SafeMath.sub(msg.value, transactionFee);\r\n\r\n        transactionFee = toCredToken(transactionFee);\r\n        verify.transfer(transactionFee);\r\n\r\n        if (payment <= creditCeiling) {\r\n            seller.transfer(payment);\r\n        } else if (creditCeiling < payment) {\r\n            if (creditCeiling > 0) {\r\n                seller.transfer(creditCeiling);\r\n            }\r\n            moneyInEscrow = moneyInEscrow + toDaiToken(SafeMath.sub(payment, creditCeiling));\r\n            verifyEscrow.transfer(moneyInEscrow);\r\n        }\r\n    }\r\n\r\n    function sendFundsToSeller () public payable onlyVerify {\r\n        seller.transfer(moneyInEscrow);\r\n        moneyInEscrow = 0;\r\n    }\r\n\r\n    // Note: Transaction fee is non-refundable.\r\n    function refund () public payable onlySeller {\r\n        buyer.transfer(payment);\r\n    }\r\n\r\n    // Note: For v1, we will only take 1% of the transaction as 'insurance' fee.\r\n    // In the future, we will use an algorithm to calculate the 'insurance' fee,\r\n    // taking into account the reputation of both parties involved.\r\n    function getTransactionFee ()\r\n        private\r\n        returns (uint transactionFee)\r\n    {\r\n        return SafeMath.div(msg.value, 100);\r\n    }\r\n\r\n    function toDaiToken (uint amountInEther)\r\n        private\r\n        returns (uint amountInDai)\r\n    {\r\n    }\r\n\r\n    function toCredToken (uint amountInEther)\r\n        private\r\n        returns (uint amountInCred)\r\n    {\r\n    }\r\n}",
  "sourcePath": "C:\\Users\\ricky_000\\Documents\\GitHub\\ethereum-smart-contract\\contracts\\Purchase.sol",
  "compiler": {
    "name": "solc",
    "version": "0.4.24+commit.e67f0147.Emscripten.clang"
  },
  "schemaVersion": "2.0.1",
  "updatedAt": "2018-07-09T22:58:15.385Z"
}