{
  "contractName": "Purchase",
  "abi": [
    {
      "constant": true,
      "inputs": [],
      "name": "seller",
      "outputs": [
        {
          "name": "",
          "type": "address"
        }
      ],
      "payable": false,
      "stateMutability": "view",
      "type": "function"
    },
    {
      "constant": true,
      "inputs": [],
      "name": "creditCeiling",
      "outputs": [
        {
          "name": "",
          "type": "uint256"
        }
      ],
      "payable": false,
      "stateMutability": "view",
      "type": "function"
    },
    {
      "constant": true,
      "inputs": [],
      "name": "verifyEscrow",
      "outputs": [
        {
          "name": "",
          "type": "address"
        }
      ],
      "payable": false,
      "stateMutability": "view",
      "type": "function"
    },
    {
      "constant": true,
      "inputs": [],
      "name": "buyer",
      "outputs": [
        {
          "name": "",
          "type": "address"
        }
      ],
      "payable": false,
      "stateMutability": "view",
      "type": "function"
    },
    {
      "constant": true,
      "inputs": [],
      "name": "moneyInEscrow",
      "outputs": [
        {
          "name": "",
          "type": "uint256"
        }
      ],
      "payable": false,
      "stateMutability": "view",
      "type": "function"
    },
    {
      "constant": true,
      "inputs": [],
      "name": "verify",
      "outputs": [
        {
          "name": "",
          "type": "address"
        }
      ],
      "payable": false,
      "stateMutability": "view",
      "type": "function"
    },
    {
      "inputs": [
        {
          "name": "addressSeller",
          "type": "address"
        }
      ],
      "payable": true,
      "stateMutability": "payable",
      "type": "constructor"
    },
    {
      "payable": true,
      "stateMutability": "payable",
      "type": "fallback"
    },
    {
      "constant": false,
      "inputs": [
        {
          "name": "ceiling",
          "type": "uint256"
        }
      ],
      "name": "setCreditCeiling",
      "outputs": [],
      "payable": false,
      "stateMutability": "nonpayable",
      "type": "function"
    },
    {
      "constant": false,
      "inputs": [],
      "name": "sendFundsToVerify",
      "outputs": [],
      "payable": true,
      "stateMutability": "payable",
      "type": "function"
    },
    {
      "constant": false,
      "inputs": [],
      "name": "sendFundsToSeller",
      "outputs": [],
      "payable": true,
      "stateMutability": "payable",
      "type": "function"
    },
    {
      "constant": false,
      "inputs": [],
      "name": "refundFromVerify",
      "outputs": [],
      "payable": true,
      "stateMutability": "payable",
      "type": "function"
    }
  ],
  "bytecode": "0x608060405273848a4a97b22cd1c447c322bfc94d2910677367ec600260006101000a81548173ffffffffffffffffffffffffffffffffffffffff021916908373ffffffffffffffffffffffffffffffffffffffff16021790555073e41f2af5603b376e9df9f3e0763a0e568530ee7b600360006101000a81548173ffffffffffffffffffffffffffffffffffffffff021916908373ffffffffffffffffffffffffffffffffffffffff16021790555060006004556000600555604051602080610aea83398101806040528101908080519060200190929190505050336000806101000a81548173ffffffffffffffffffffffffffffffffffffffff021916908373ffffffffffffffffffffffffffffffffffffffff16021790555080600160006101000a81548173ffffffffffffffffffffffffffffffffffffffff021916908373ffffffffffffffffffffffffffffffffffffffff1602179055505061097f8061016b6000396000f3006080604052600436106100a4576000357c0100000000000000000000000000000000000000000000000000000000900463ffffffff16806308551a53146100a65780630a30dfc9146100fd57806310a441c91461012857806364e8b4eb1461017f5780637043c8b0146101895780637150d8ae146101b657806392358fc41461020d57806396c7a3bc14610238578063e7d58efe14610242578063fc735e991461024c575b005b3480156100b257600080fd5b506100bb6102a3565b604051808273ffffffffffffffffffffffffffffffffffffffff1673ffffffffffffffffffffffffffffffffffffffff16815260200191505060405180910390f35b34801561010957600080fd5b506101126102c9565b6040518082815260200191505060405180910390f35b34801561013457600080fd5b5061013d6102cf565b604051808273ffffffffffffffffffffffffffffffffffffffff1673ffffffffffffffffffffffffffffffffffffffff16815260200191505060405180910390f35b6101876102f5565b005b34801561019557600080fd5b506101b46004803603810190808035906020019092919050505061045b565b005b3480156101c257600080fd5b506101cb610550565b604051808273ffffffffffffffffffffffffffffffffffffffff1673ffffffffffffffffffffffffffffffffffffffff16815260200191505060405180910390f35b34801561021957600080fd5b50610222610575565b6040518082815260200191505060405180910390f35b61024061057b565b005b61024a610782565b005b34801561025857600080fd5b506102616108e7565b604051808273ffffffffffffffffffffffffffffffffffffffff1673ffffffffffffffffffffffffffffffffffffffff16815260200191505060405180910390f35b600160009054906101000a900473ffffffffffffffffffffffffffffffffffffffff1681565b60045481565b600360009054906101000a900473ffffffffffffffffffffffffffffffffffffffff1681565b6000600360009054906101000a900473ffffffffffffffffffffffffffffffffffffffff1673ffffffffffffffffffffffffffffffffffffffff163373ffffffffffffffffffffffffffffffffffffffff161415156103e2576040517f08c379a00000000000000000000000000000000000000000000000000000000081526004018080602001828103825260398152602001807f4f6e6c792074686520657363726f77206163636f756e74206f6620566572696681526020017f792063616e2063616c6c20746869732066756e6374696f6e2e0000000000000081525060400191505060405180910390fd5b60055490506000600581905550600160009054906101000a900473ffffffffffffffffffffffffffffffffffffffff1673ffffffffffffffffffffffffffffffffffffffff166108fc829081150290604051600060405180830381858888f19350505050158015610457573d6000803e3d6000fd5b5050565b600360009054906101000a900473ffffffffffffffffffffffffffffffffffffffff1673ffffffffffffffffffffffffffffffffffffffff163373ffffffffffffffffffffffffffffffffffffffff16141515610546576040517f08c379a00000000000000000000000000000000000000000000000000000000081526004018080602001828103825260398152602001807f4f6e6c792074686520657363726f77206163636f756e74206f6620566572696681526020017f792063616e2063616c6c20746869732066756e6374696f6e2e0000000000000081525060400191505060405180910390fd5b8060048190555050565b6000809054906101000a900473ffffffffffffffffffffffffffffffffffffffff1681565b60055481565b60008061058934606461090d565b9150813403905061059982610923565b9150600260009054906101000a900473ffffffffffffffffffffffffffffffffffffffff1673ffffffffffffffffffffffffffffffffffffffff166108fc839081150290604051600060405180830381858888f19350505050158015610603573d6000803e3d6000fd5b506004548111151561067d57600160009054906101000a900473ffffffffffffffffffffffffffffffffffffffff1673ffffffffffffffffffffffffffffffffffffffff166108fc829081150290604051600060405180830381858888f19350505050158015610677573d6000803e3d6000fd5b5061077e565b600060045411156106f457600160009054906101000a900473ffffffffffffffffffffffffffffffffffffffff1673ffffffffffffffffffffffffffffffffffffffff166108fc6004549081150290604051600060405180830381858888f193505050501580156106f2573d6000803e3d6000fd5b505b61070c600554610707600454840361092d565b610937565b600581905550600360009054906101000a900473ffffffffffffffffffffffffffffffffffffffff1673ffffffffffffffffffffffffffffffffffffffff166108fc6005549081150290604051600060405180830381858888f1935050505015801561077c573d6000803e3d6000fd5b505b5050565b6000600360009054906101000a900473ffffffffffffffffffffffffffffffffffffffff1673ffffffffffffffffffffffffffffffffffffffff163373ffffffffffffffffffffffffffffffffffffffff1614151561086f576040517f08c379a00000000000000000000000000000000000000000000000000000000081526004018080602001828103825260398152602001807f4f6e6c792074686520657363726f77206163636f756e74206f6620566572696681526020017f792063616e2063616c6c20746869732066756e6374696f6e2e0000000000000081525060400191505060405180910390fd5b600554905060006005819055506000809054906101000a900473ffffffffffffffffffffffffffffffffffffffff1673ffffffffffffffffffffffffffffffffffffffff166108fc829081150290604051600060405180830381858888f193505050501580156108e3573d6000803e3d6000fd5b5050565b600260009054906101000a900473ffffffffffffffffffffffffffffffffffffffff1681565b6000818381151561091a57fe5b04905092915050565b6000819050919050565b6000819050919050565b6000818301905082811015151561094a57fe5b809050929150505600a165627a7a723058204351c94e3c2693333c126d4632fc6fef7785832208543999e1844e72b513fe340029",
  "source": "pragma solidity ^0.4.22;\r\n\r\nimport '../node_modules/openzeppelin-solidity/contracts/math/SafeMath.sol';\r\n\r\ncontract Purchase {\r\n\r\n    address public buyer;\r\n    address public seller;\r\n    address public verify = 0x848a4a97B22CD1c447C322Bfc94d2910677367ec;\r\n    address public verifyEscrow = 0xE41F2AF5603b376E9dF9f3e0763A0E568530Ee7b;\r\n    uint public creditCeiling = 0;\r\n    uint public moneyInEscrow = 0;\r\n\r\n    modifier onlyVerifyEscrow {\r\n        require(\r\n            msg.sender == verifyEscrow,\r\n            \"Only the escrow account of Verify can call this function.\"\r\n        );\r\n        _;\r\n    }\r\n\r\n    constructor (address addressSeller) public payable {\r\n        buyer = msg.sender;\r\n        seller = addressSeller;\r\n    }\r\n\r\n    // Fallback function to accept ETH into contract.\r\n    function() public payable {\r\n    }\r\n\r\n    function setCreditCeiling (uint ceiling) external onlyVerifyEscrow {\r\n        creditCeiling = ceiling;\r\n    }\r\n\r\n    function sendFundsToVerify () public payable {\r\n        uint transactionFee = SafeMath.div(msg.value, 100);\r\n        uint payment = msg.value - transactionFee;\r\n\r\n        transactionFee = toCredToken(transactionFee);\r\n        verify.transfer(transactionFee);\r\n\r\n        if (payment <= creditCeiling) {\r\n            seller.transfer(payment);\r\n        } else {\r\n            if (creditCeiling > 0) {\r\n                seller.transfer(creditCeiling);\r\n            }\r\n            moneyInEscrow = SafeMath.add(moneyInEscrow, toDaiToken(payment - creditCeiling));\r\n\r\n            verifyEscrow.transfer(moneyInEscrow);\r\n        }\r\n    }\r\n\r\n    function sendFundsToSeller () public payable onlyVerifyEscrow {\r\n        uint moneyTransfer = moneyInEscrow;\r\n        moneyInEscrow = 0;\r\n\r\n        seller.transfer(moneyTransfer);\r\n    }\r\n\r\n    function refundFromVerify () public payable onlyVerifyEscrow {\r\n        uint moneyTransfer = moneyInEscrow;\r\n        moneyInEscrow = 0;\r\n\r\n        buyer.transfer(moneyTransfer);\r\n    }\r\n\r\n    function toDaiToken (uint amountInEther)\r\n        private\r\n        returns (uint amountInDai)\r\n    {\r\n        return amountInEther;\r\n    }\r\n\r\n    function toCredToken (uint amountInEther)\r\n        private\r\n        returns (uint amountInCred)\r\n    {\r\n        return amountInEther;\r\n    }\r\n}",
  "sourcePath": "C:\\Users\\ricky_000\\Documents\\GitHub\\ethereum-smart-contract\\contracts\\Purchase.sol",
  "compiler": {
    "name": "solc",
    "version": "0.4.24+commit.e67f0147.Emscripten.clang"
  },
  "schemaVersion": "2.0.1",
  "updatedAt": "2018-07-18T03:47:37.626Z"
}