{
  "contractName": "Purchase",
  "abi": [
    {
      "constant": true,
      "inputs": [],
      "name": "seller",
      "outputs": [
        {
          "name": "",
          "type": "address"
        }
      ],
      "payable": false,
      "stateMutability": "view",
      "type": "function"
    },
    {
      "constant": true,
      "inputs": [],
      "name": "creditCeiling",
      "outputs": [
        {
          "name": "",
          "type": "uint256"
        }
      ],
      "payable": false,
      "stateMutability": "view",
      "type": "function"
    },
    {
      "constant": true,
      "inputs": [],
      "name": "verifyEscrow",
      "outputs": [
        {
          "name": "",
          "type": "address"
        }
      ],
      "payable": false,
      "stateMutability": "view",
      "type": "function"
    },
    {
      "constant": true,
      "inputs": [],
      "name": "buyer",
      "outputs": [
        {
          "name": "",
          "type": "address"
        }
      ],
      "payable": false,
      "stateMutability": "view",
      "type": "function"
    },
    {
      "constant": true,
      "inputs": [],
      "name": "moneyInEscrow",
      "outputs": [
        {
          "name": "",
          "type": "uint256"
        }
      ],
      "payable": false,
      "stateMutability": "view",
      "type": "function"
    },
    {
      "constant": true,
      "inputs": [],
      "name": "dai",
      "outputs": [
        {
          "name": "",
          "type": "address"
        }
      ],
      "payable": false,
      "stateMutability": "view",
      "type": "function"
    },
    {
      "constant": true,
      "inputs": [],
      "name": "verify",
      "outputs": [
        {
          "name": "",
          "type": "address"
        }
      ],
      "payable": false,
      "stateMutability": "view",
      "type": "function"
    },
    {
      "inputs": [
        {
          "name": "addressSeller",
          "type": "address"
        }
      ],
      "payable": true,
      "stateMutability": "payable",
      "type": "constructor"
    },
    {
      "payable": true,
      "stateMutability": "payable",
      "type": "fallback"
    },
    {
      "constant": false,
      "inputs": [
        {
          "name": "ceiling",
          "type": "uint256"
        }
      ],
      "name": "setCreditCeiling",
      "outputs": [],
      "payable": false,
      "stateMutability": "nonpayable",
      "type": "function"
    },
    {
      "constant": false,
      "inputs": [],
      "name": "sendFundsToVerify",
      "outputs": [],
      "payable": true,
      "stateMutability": "payable",
      "type": "function"
    },
    {
      "constant": false,
      "inputs": [],
      "name": "sendFundsToSeller",
      "outputs": [],
      "payable": true,
      "stateMutability": "payable",
      "type": "function"
    },
    {
      "constant": false,
      "inputs": [],
      "name": "refundFromVerify",
      "outputs": [],
      "payable": true,
      "stateMutability": "payable",
      "type": "function"
    }
  ],
  "bytecode": "0x608060405273848a4a97b22cd1c447c322bfc94d2910677367ec600260006101000a81548173ffffffffffffffffffffffffffffffffffffffff021916908373ffffffffffffffffffffffffffffffffffffffff16021790555073e41f2af5603b376e9df9f3e0763a0e568530ee7b600360006101000a81548173ffffffffffffffffffffffffffffffffffffffff021916908373ffffffffffffffffffffffffffffffffffffffff16021790555060006004556000600555604051602080610d6283398101806040528101908080519060200190929190505050336000806101000a81548173ffffffffffffffffffffffffffffffffffffffff021916908373ffffffffffffffffffffffffffffffffffffffff16021790555080600160006101000a81548173ffffffffffffffffffffffffffffffffffffffff021916908373ffffffffffffffffffffffffffffffffffffffff1602179055507389d24a6b4ccb1b6faa2625fe562bdd9a23260359600660006101000a81548173ffffffffffffffffffffffffffffffffffffffff021916908373ffffffffffffffffffffffffffffffffffffffff16021790555050610ba2806101c06000396000f3006080604052600436106100af576000357c0100000000000000000000000000000000000000000000000000000000900463ffffffff16806308551a53146100b15780630a30dfc91461010857806310a441c91461013357806364e8b4eb1461018a5780637043c8b0146101945780637150d8ae146101c157806392358fc41461021857806396c7a3bc14610243578063e7d58efe1461024d578063f4b9fa7514610257578063fc735e99146102ae575b005b3480156100bd57600080fd5b506100c6610305565b604051808273ffffffffffffffffffffffffffffffffffffffff1673ffffffffffffffffffffffffffffffffffffffff16815260200191505060405180910390f35b34801561011457600080fd5b5061011d61032b565b6040518082815260200191505060405180910390f35b34801561013f57600080fd5b50610148610331565b604051808273ffffffffffffffffffffffffffffffffffffffff1673ffffffffffffffffffffffffffffffffffffffff16815260200191505060405180910390f35b610192610357565b005b3480156101a057600080fd5b506101bf60048036038101908080359060200190929190505050610553565b005b3480156101cd57600080fd5b506101d6610648565b604051808273ffffffffffffffffffffffffffffffffffffffff1673ffffffffffffffffffffffffffffffffffffffff16815260200191505060405180910390f35b34801561022457600080fd5b5061022d61066d565b6040518082815260200191505060405180910390f35b61024b610673565b005b6102556108fd565b005b34801561026357600080fd5b5061026c610af8565b604051808273ffffffffffffffffffffffffffffffffffffffff1673ffffffffffffffffffffffffffffffffffffffff16815260200191505060405180910390f35b3480156102ba57600080fd5b506102c3610b1e565b604051808273ffffffffffffffffffffffffffffffffffffffff1673ffffffffffffffffffffffffffffffffffffffff16815260200191505060405180910390f35b600160009054906101000a900473ffffffffffffffffffffffffffffffffffffffff1681565b60045481565b600360009054906101000a900473ffffffffffffffffffffffffffffffffffffffff1681565b6000600360009054906101000a900473ffffffffffffffffffffffffffffffffffffffff1673ffffffffffffffffffffffffffffffffffffffff163373ffffffffffffffffffffffffffffffffffffffff16141515610444576040517f08c379a00000000000000000000000000000000000000000000000000000000081526004018080602001828103825260398152602001807f4f6e6c792074686520657363726f77206163636f756e74206f6620566572696681526020017f792063616e2063616c6c20746869732066756e6374696f6e2e0000000000000081525060400191505060405180910390fd5b60055490506000600581905550600660009054906101000a900473ffffffffffffffffffffffffffffffffffffffff1673ffffffffffffffffffffffffffffffffffffffff1663a9059cbb600160009054906101000a900473ffffffffffffffffffffffffffffffffffffffff16836040518363ffffffff167c0100000000000000000000000000000000000000000000000000000000028152600401808373ffffffffffffffffffffffffffffffffffffffff1673ffffffffffffffffffffffffffffffffffffffff16815260200182815260200192505050600060405180830381600087803b15801561053857600080fd5b505af115801561054c573d6000803e3d6000fd5b5050505050565b600360009054906101000a900473ffffffffffffffffffffffffffffffffffffffff1673ffffffffffffffffffffffffffffffffffffffff163373ffffffffffffffffffffffffffffffffffffffff1614151561063e576040517f08c379a00000000000000000000000000000000000000000000000000000000081526004018080602001828103825260398152602001807f4f6e6c792074686520657363726f77206163636f756e74206f6620566572696681526020017f792063616e2063616c6c20746869732066756e6374696f6e2e0000000000000081525060400191505060405180910390fd5b8060048190555050565b6000809054906101000a900473ffffffffffffffffffffffffffffffffffffffff1681565b60055481565b600080610681346064610b44565b91508134039050600260009054906101000a900473ffffffffffffffffffffffffffffffffffffffff1673ffffffffffffffffffffffffffffffffffffffff166108fc839081150290604051600060405180830381858888f193505050501580156106f0573d6000803e3d6000fd5b506004548111151561076a57600160009054906101000a900473ffffffffffffffffffffffffffffffffffffffff1673ffffffffffffffffffffffffffffffffffffffff166108fc829081150290604051600060405180830381858888f19350505050158015610764573d6000803e3d6000fd5b506108f9565b600060045411156107e157600160009054906101000a900473ffffffffffffffffffffffffffffffffffffffff1673ffffffffffffffffffffffffffffffffffffffff166108fc6004549081150290604051600060405180830381858888f193505050501580156107df573d6000803e3d6000fd5b505b6107f16005546004548303610b5a565b600581905550600660009054906101000a900473ffffffffffffffffffffffffffffffffffffffff1673ffffffffffffffffffffffffffffffffffffffff1663a9059cbb600360009054906101000a900473ffffffffffffffffffffffffffffffffffffffff166005546040518363ffffffff167c0100000000000000000000000000000000000000000000000000000000028152600401808373ffffffffffffffffffffffffffffffffffffffff1673ffffffffffffffffffffffffffffffffffffffff16815260200182815260200192505050600060405180830381600087803b1580156108e057600080fd5b505af11580156108f4573d6000803e3d6000fd5b505050505b5050565b6000600360009054906101000a900473ffffffffffffffffffffffffffffffffffffffff1673ffffffffffffffffffffffffffffffffffffffff163373ffffffffffffffffffffffffffffffffffffffff161415156109ea576040517f08c379a00000000000000000000000000000000000000000000000000000000081526004018080602001828103825260398152602001807f4f6e6c792074686520657363726f77206163636f756e74206f6620566572696681526020017f792063616e2063616c6c20746869732066756e6374696f6e2e0000000000000081525060400191505060405180910390fd5b60055490506000600581905550600660009054906101000a900473ffffffffffffffffffffffffffffffffffffffff1673ffffffffffffffffffffffffffffffffffffffff1663a9059cbb6000809054906101000a900473ffffffffffffffffffffffffffffffffffffffff16836040518363ffffffff167c0100000000000000000000000000000000000000000000000000000000028152600401808373ffffffffffffffffffffffffffffffffffffffff1673ffffffffffffffffffffffffffffffffffffffff16815260200182815260200192505050600060405180830381600087803b158015610add57600080fd5b505af1158015610af1573d6000803e3d6000fd5b5050505050565b600660009054906101000a900473ffffffffffffffffffffffffffffffffffffffff1681565b600260009054906101000a900473ffffffffffffffffffffffffffffffffffffffff1681565b60008183811515610b5157fe5b04905092915050565b60008183019050828110151515610b6d57fe5b809050929150505600a165627a7a72305820006efd3a5fcf3c4a0b9872b88bf71feb0fe8bb1cfb775b32578021b188fadb520029",
  "source": "pragma solidity ^0.4.22;\r\n\r\nimport '../contracts/ERC20Token.sol';\r\nimport '../node_modules/openzeppelin-solidity/contracts/math/SafeMath.sol';\r\n//import 'https://github.com/bancorprotocol/contracts/blob/master/solidity/contracts/converter/BancorConverter.sol';\r\n\r\ncontract Purchase {\r\n\r\n    address public buyer;\r\n    address public seller;\r\n    address public verify = 0x848a4a97B22CD1c447C322Bfc94d2910677367ec;\r\n    address public verifyEscrow = 0xE41F2AF5603b376E9dF9f3e0763A0E568530Ee7b;\r\n    uint public creditCeiling = 0;\r\n    uint public moneyInEscrow = 0;\r\n    ERC20Token public dai;\r\n\r\n    modifier onlyVerifyEscrow {\r\n        require(\r\n            msg.sender == verifyEscrow,\r\n            \"Only the escrow account of Verify can call this function.\"\r\n        );\r\n        _;\r\n    }\r\n\r\n    constructor (address addressSeller) public payable {\r\n        buyer = msg.sender;\r\n        seller = addressSeller;\r\n        dai = ERC20Token(0x89d24A6b4CcB1B6fAA2625fE562bDD9a23260359);\r\n    }\r\n\r\n    // Fallback function to accept ETH into contract.\r\n    function() public payable {\r\n    }\r\n\r\n    function setCreditCeiling (uint ceiling) external onlyVerifyEscrow {\r\n        creditCeiling = ceiling;\r\n    }\r\n\r\n    function sendFundsToVerify () public payable {\r\n        uint transactionFee = SafeMath.div(msg.value, 100);\r\n        uint payment = msg.value - transactionFee;\r\n\r\n        verify.transfer(transactionFee);\r\n\r\n        if (payment <= creditCeiling) {\r\n            seller.transfer(payment);\r\n        } else {\r\n            if (creditCeiling > 0) {\r\n                seller.transfer(creditCeiling);\r\n            }\r\n            moneyInEscrow = SafeMath.add(moneyInEscrow, payment - creditCeiling);\r\n\r\n            //moneyInEscrow = toDaiStablecoin(moneyInEscrow);\r\n\r\n            dai.transfer(verifyEscrow, moneyInEscrow);\r\n        }\r\n    }\r\n\r\n    function sendFundsToSeller () public payable onlyVerifyEscrow {\r\n        uint moneyTransfer = moneyInEscrow;\r\n        moneyInEscrow = 0;\r\n\r\n        dai.transfer(seller, moneyTransfer);\r\n    }\r\n\r\n    function refundFromVerify () public payable onlyVerifyEscrow {\r\n        uint moneyTransfer = moneyInEscrow;\r\n        moneyInEscrow = 0;\r\n\r\n        dai.transfer(buyer, moneyTransfer);\r\n    }\r\n\r\n    /*function toDaiStablecoin (uint amountInEth)\r\n      private\r\n      returns (uint amountInDai)\r\n    {\r\n        return convert(0xc0829421c1d260bd3cb3e0f06cfe2d52db2ce315, 0x89d24a6b4ccb1b6faa2625fe562bdd9a23260359, amountInEth, 0);\r\n    }*/\r\n}",
  "sourcePath": "C:\\Users\\ricky_000\\Documents\\GitHub\\ethereum-smart-contract\\contracts\\Purchase.sol",
  "compiler": {
    "name": "solc",
    "version": "0.4.24+commit.e67f0147.Emscripten.clang"
  },
  "schemaVersion": "2.0.1",
  "updatedAt": "2018-07-31T06:12:21.603Z"
}