{
  "contractName": "Purchase",
  "abi": [
    {
      "constant": true,
      "inputs": [
        {
          "name": "",
          "type": "uint256"
        }
      ],
      "name": "amounts",
      "outputs": [
        {
          "name": "",
          "type": "uint256"
        }
      ],
      "payable": false,
      "stateMutability": "view",
      "type": "function"
    },
    {
      "constant": true,
      "inputs": [],
      "name": "verifyWallet",
      "outputs": [
        {
          "name": "",
          "type": "address"
        }
      ],
      "payable": false,
      "stateMutability": "view",
      "type": "function"
    },
    {
      "constant": true,
      "inputs": [],
      "name": "owner",
      "outputs": [
        {
          "name": "",
          "type": "address"
        }
      ],
      "payable": false,
      "stateMutability": "view",
      "type": "function"
    },
    {
      "constant": true,
      "inputs": [],
      "name": "curIndex",
      "outputs": [
        {
          "name": "",
          "type": "uint256"
        }
      ],
      "payable": false,
      "stateMutability": "view",
      "type": "function"
    },
    {
      "constant": true,
      "inputs": [
        {
          "name": "",
          "type": "uint256"
        }
      ],
      "name": "sellers",
      "outputs": [
        {
          "name": "",
          "type": "address"
        }
      ],
      "payable": false,
      "stateMutability": "view",
      "type": "function"
    },
    {
      "constant": true,
      "inputs": [
        {
          "name": "",
          "type": "uint256"
        }
      ],
      "name": "buyers",
      "outputs": [
        {
          "name": "",
          "type": "address"
        }
      ],
      "payable": false,
      "stateMutability": "view",
      "type": "function"
    },
    {
      "inputs": [],
      "payable": true,
      "stateMutability": "payable",
      "type": "constructor"
    },
    {
      "payable": true,
      "stateMutability": "payable",
      "type": "fallback"
    },
    {
      "constant": false,
      "inputs": [
        {
          "name": "seller",
          "type": "address"
        }
      ],
      "name": "receiveFunds",
      "outputs": [],
      "payable": true,
      "stateMutability": "payable",
      "type": "function"
    },
    {
      "constant": false,
      "inputs": [
        {
          "name": "txIndex",
          "type": "uint256"
        }
      ],
      "name": "completeTransaction",
      "outputs": [],
      "payable": false,
      "stateMutability": "nonpayable",
      "type": "function"
    },
    {
      "constant": false,
      "inputs": [
        {
          "name": "txIndex",
          "type": "uint256"
        }
      ],
      "name": "refundTransaction",
      "outputs": [],
      "payable": false,
      "stateMutability": "nonpayable",
      "type": "function"
    }
  ],
  "bytecode": "0x608060405273c5fdf4076b8f3a5357c5e395ab970b5b54098fef600160006101000a81548173ffffffffffffffffffffffffffffffffffffffff021916908373ffffffffffffffffffffffffffffffffffffffff1602179055506000600255336000806101000a81548173ffffffffffffffffffffffffffffffffffffffff021916908373ffffffffffffffffffffffffffffffffffffffff1602179055506109a0806100ad6000396000f300608060405260043610610099576000357c0100000000000000000000000000000000000000000000000000000000900463ffffffff16806345f0a44f1461009b5780635cef5334146100dc5780638da5cb5b14610133578063c912696c1461018a578063cee26ed5146101b5578063d4e678b814610222578063df8926c61461024f578063f2aa821814610285578063f5e83e17146102f2575b005b3480156100a757600080fd5b506100c66004803603810190808035906020019092919050505061031f565b6040518082815260200191505060405180910390f35b3480156100e857600080fd5b506100f1610337565b604051808273ffffffffffffffffffffffffffffffffffffffff1673ffffffffffffffffffffffffffffffffffffffff16815260200191505060405180910390f35b34801561013f57600080fd5b5061014861035d565b604051808273ffffffffffffffffffffffffffffffffffffffff1673ffffffffffffffffffffffffffffffffffffffff16815260200191505060405180910390f35b34801561019657600080fd5b5061019f610382565b6040518082815260200191505060405180910390f35b3480156101c157600080fd5b506101e060048036038101908080359060200190929190505050610388565b604051808273ffffffffffffffffffffffffffffffffffffffff1673ffffffffffffffffffffffffffffffffffffffff16815260200191505060405180910390f35b34801561022e57600080fd5b5061024d600480360381019080803590602001909291905050506103bb565b005b610283600480360381019080803573ffffffffffffffffffffffffffffffffffffffff169060200190929190505050610554565b005b34801561029157600080fd5b506102b06004803603810190808035906020019092919050505061076c565b604051808273ffffffffffffffffffffffffffffffffffffffff1673ffffffffffffffffffffffffffffffffffffffff16815260200191505060405180910390f35b3480156102fe57600080fd5b5061031d6004803603810190808035906020019092919050505061079f565b005b60036020528060005260406000206000915090505481565b600160009054906101000a900473ffffffffffffffffffffffffffffffffffffffff1681565b6000809054906101000a900473ffffffffffffffffffffffffffffffffffffffff1681565b60025481565b60056020528060005260406000206000915054906101000a900473ffffffffffffffffffffffffffffffffffffffff1681565b60008060009054906101000a900473ffffffffffffffffffffffffffffffffffffffff1673ffffffffffffffffffffffffffffffffffffffff163373ffffffffffffffffffffffffffffffffffffffff161415156104a7576040517f08c379a00000000000000000000000000000000000000000000000000000000081526004018080602001828103825260238152602001807f4f6e6c79205665726966792063616e2063616c6c20746869732066756e63746981526020017f6f6e2e000000000000000000000000000000000000000000000000000000000081525060400191505060405180910390fd5b60036000838152602001908152602001600020549050600060036000848152602001908152602001600020819055506004600083815260200190815260200160002060009054906101000a900473ffffffffffffffffffffffffffffffffffffffff1673ffffffffffffffffffffffffffffffffffffffff166108fc829081150290604051600060405180830381858888f1935050505015801561054f573d6000803e3d6000fd5b505050565b6000806000341115156105f5576040517f08c379a00000000000000000000000000000000000000000000000000000000081526004018080602001828103825260258152602001807f596f75206d7573742073656e6420736f6d652045544820746f2074686973206d81526020017f6574686f6400000000000000000000000000000000000000000000000000000081525060400191505060405180910390fd5b610600346064610938565b915081340390506106108261094e565b9150600160009054906101000a900473ffffffffffffffffffffffffffffffffffffffff1673ffffffffffffffffffffffffffffffffffffffff166108fc839081150290604051600060405180830381858888f1935050505015801561067a573d6000803e3d6000fd5b5061069a6003600060025481526020019081526020016000205482610958565b600360006002548152602001908152602001600020819055503360046000600254815260200190815260200160002060006101000a81548173ffffffffffffffffffffffffffffffffffffffff021916908373ffffffffffffffffffffffffffffffffffffffff1602179055508260056000600254815260200190815260200160002060006101000a81548173ffffffffffffffffffffffffffffffffffffffff021916908373ffffffffffffffffffffffffffffffffffffffff160217905550600160025401600281905550505050565b60046020528060005260406000206000915054906101000a900473ffffffffffffffffffffffffffffffffffffffff1681565b60008060009054906101000a900473ffffffffffffffffffffffffffffffffffffffff1673ffffffffffffffffffffffffffffffffffffffff163373ffffffffffffffffffffffffffffffffffffffff1614151561088b576040517f08c379a00000000000000000000000000000000000000000000000000000000081526004018080602001828103825260238152602001807f4f6e6c79205665726966792063616e2063616c6c20746869732066756e63746981526020017f6f6e2e000000000000000000000000000000000000000000000000000000000081525060400191505060405180910390fd5b60036000838152602001908152602001600020549050600060036000848152602001908152602001600020819055506005600083815260200190815260200160002060009054906101000a900473ffffffffffffffffffffffffffffffffffffffff1673ffffffffffffffffffffffffffffffffffffffff166108fc829081150290604051600060405180830381858888f19350505050158015610933573d6000803e3d6000fd5b505050565b6000818381151561094557fe5b04905092915050565b6000819050919050565b6000818301905082811015151561096b57fe5b809050929150505600a165627a7a723058202d461dd02fb71adf69acff10aa9116c068dba6713c6d4cd4ac2f82b63d95e3e70029",
  "source": "pragma solidity ^0.4.22;\n\nimport '../node_modules/openzeppelin-solidity/contracts/math/SafeMath.sol';\n\ncontract Purchase {\n    address public owner;\n    // This wallet receives the transaction fees:\n    address public verifyWallet = 0xC5fdf4076b8F3A5357c5E395ab970B5B54098Fef;\n    \n    // Tracks combination of (txId, amount, buyer, seller)\n    uint256 public curIndex = 0;\n    mapping(uint256 => uint256) public amounts;\n    mapping(uint256 => address) public buyers;\n    mapping(uint256 => address) public sellers;\n\n    modifier onlyOwner {\n        require(\n            msg.sender == owner,\n            \"Only Verify can call this function.\"\n        );\n        _;\n    }\n\n    constructor () public payable {\n        owner = msg.sender;\n    }\n\n    // Fallback function to accept ETH into contract.\n    function() public payable {\n    }\n\n    function receiveFunds(address seller) public payable {\n        require(msg.value > 0, \"You must send some ETH to this method\");\n        \n        // Deduct transaction fee in CRED\n        uint transactionFee = SafeMath.div(msg.value, 100);\n        uint payment = msg.value - transactionFee;\n        transactionFee = toCredToken(transactionFee);\n        verifyWallet.transfer(transactionFee);\n\n        // Store transaction\n        amounts[curIndex] = SafeMath.add(amounts[curIndex], payment);    \n        buyers[curIndex] = msg.sender;\n        sellers[curIndex] = seller;\n        curIndex = curIndex + 1;\n    }\n\n    function completeTransaction (uint256 txIndex) public onlyOwner {\n        uint256 amount = amounts[txIndex];\n        amounts[txIndex] = 0;\n        \n        sellers[txIndex].transfer(amount);\n    }\n\n    function refundTransaction (uint256 txIndex) public onlyOwner {\n        uint256 amount = amounts[txIndex];\n        amounts[txIndex] = 0;\n        \n        buyers[txIndex].transfer(amount);\n    }\n\n    function toDaiToken (uint amountInEther) pure\n        private\n        returns (uint amountInDai)\n    {\n        /**\n         * Bancor does not support conversion to DAI on Ropsten\n         * See: https://goo.gl/cQkrvL \n         **/\n        return amountInEther;\n    }\n\n    function toCredToken (uint amountInEther) pure\n        private\n        returns (uint amountInCred)\n    {\n        /** \n         * ETH to CRED conversion takes place external to this \n         * smart contract through a batch-conversion script\n         * that runs regularly \n         **/\n        return amountInEther;\n    }\n}",
  "sourcePath": "/home/paper/Desktop/verify/_eth_/contract/contracts/Purchase.sol",
  "compiler": {
    "name": "solc",
    "version": "0.4.24+commit.e67f0147.Emscripten.clang"
  },
  "schemaVersion": "2.0.1",
  "updatedAt": "2018-10-09T16:39:17.026Z"
}