{
  "contractName": "Purchase",
  "abi": [
    {
      "constant": true,
      "inputs": [],
      "name": "seller",
      "outputs": [
        {
          "name": "",
          "type": "address"
        }
      ],
      "payable": false,
      "stateMutability": "view",
      "type": "function"
    },
    {
      "constant": true,
      "inputs": [],
      "name": "verifyEscrow",
      "outputs": [
        {
          "name": "",
          "type": "address"
        }
      ],
      "payable": false,
      "stateMutability": "view",
      "type": "function"
    },
    {
      "constant": true,
      "inputs": [],
      "name": "buyer",
      "outputs": [
        {
          "name": "",
          "type": "address"
        }
      ],
      "payable": false,
      "stateMutability": "view",
      "type": "function"
    },
    {
      "constant": true,
      "inputs": [],
      "name": "verify",
      "outputs": [
        {
          "name": "",
          "type": "address"
        }
      ],
      "payable": false,
      "stateMutability": "view",
      "type": "function"
    },
    {
      "inputs": [
        {
          "name": "addressSeller",
          "type": "address"
        }
      ],
      "payable": true,
      "stateMutability": "payable",
      "type": "constructor"
    },
    {
      "payable": true,
      "stateMutability": "payable",
      "type": "fallback"
    },
    {
      "constant": false,
      "inputs": [],
      "name": "collect",
      "outputs": [],
      "payable": false,
      "stateMutability": "nonpayable",
      "type": "function"
    },
    {
      "constant": false,
      "inputs": [
        {
          "name": "creditCeiling",
          "type": "uint256"
        }
      ],
      "name": "sendFundsToVerify",
      "outputs": [],
      "payable": true,
      "stateMutability": "payable",
      "type": "function"
    }
  ],
  "bytecode": "0x6080604052600060045560405160208061069e8339810180604052810190808051906020019092919050505033600160006101000a81548173ffffffffffffffffffffffffffffffffffffffff021916908373ffffffffffffffffffffffffffffffffffffffff160217905550806000806101000a81548173ffffffffffffffffffffffffffffffffffffffff021916908373ffffffffffffffffffffffffffffffffffffffff160217905550506105e2806100bc6000396000f300608060405260043610610078576000357c0100000000000000000000000000000000000000000000000000000000900463ffffffff16806308551a531461008c5780630ca9cc51146100e357806310a441c9146101035780637150d8ae1461015a578063e5225381146101b1578063fc735e99146101c8575b6100846004543461021f565b600481905550005b34801561009857600080fd5b506100a161023b565b604051808273ffffffffffffffffffffffffffffffffffffffff1673ffffffffffffffffffffffffffffffffffffffff16815260200191505060405180910390f35b61010160048036038101908080359060200190929190505050610260565b005b34801561010f57600080fd5b50610118610395565b604051808273ffffffffffffffffffffffffffffffffffffffff1673ffffffffffffffffffffffffffffffffffffffff16815260200191505060405180910390f35b34801561016657600080fd5b5061016f6103bb565b604051808273ffffffffffffffffffffffffffffffffffffffff1673ffffffffffffffffffffffffffffffffffffffff16815260200191505060405180910390f35b3480156101bd57600080fd5b506101c66103e1565b005b3480156101d457600080fd5b506101dd610553565b604051808273ffffffffffffffffffffffffffffffffffffffff1673ffffffffffffffffffffffffffffffffffffffff16815260200191505060405180910390f35b6000818301905082811015151561023257fe5b80905092915050565b6000809054906101000a900473ffffffffffffffffffffffffffffffffffffffff1681565b6000806000610270346064610579565b925061027c348461058f565b9150610287836105a8565b925083821115156102ff576000809054906101000a900473ffffffffffffffffffffffffffffffffffffffff1673ffffffffffffffffffffffffffffffffffffffff166108fc839081150290604051600060405180830381858888f193505050501580156102f9573d6000803e3d6000fd5b5061038f565b8184101561038e576000841115610379576000809054906101000a900473ffffffffffffffffffffffffffffffffffffffff1673ffffffffffffffffffffffffffffffffffffffff166108fc859081150290604051600060405180830381858888f19350505050158015610377573d6000803e3d6000fd5b505b61038b610386838661058f565b6105af565b90505b5b50505050565b600360009054906101000a900473ffffffffffffffffffffffffffffffffffffffff1681565b600160009054906101000a900473ffffffffffffffffffffffffffffffffffffffff1681565b6000600260009054906101000a900473ffffffffffffffffffffffffffffffffffffffff1673ffffffffffffffffffffffffffffffffffffffff163373ffffffffffffffffffffffffffffffffffffffff161415156104ce576040517f08c379a00000000000000000000000000000000000000000000000000000000081526004018080602001828103825260238152602001807f4f6e6c79205665726966792063616e2063616c6c20746869732066756e63746981526020017f6f6e2e000000000000000000000000000000000000000000000000000000000081525060400191505060405180910390fd5b600060045411156105505760045490506000600481905550600260009054906101000a900473ffffffffffffffffffffffffffffffffffffffff1673ffffffffffffffffffffffffffffffffffffffff166108fc829081150290604051600060405180830381858888f1935050505015801561054e573d6000803e3d6000fd5b505b50565b600260009054906101000a900473ffffffffffffffffffffffffffffffffffffffff1681565b6000818381151561058657fe5b04905092915050565b600082821115151561059d57fe5b818303905092915050565b6000919050565b60009190505600a165627a7a72305820a660610a8296b5e1f2cc2e7c229e2cd201db35e6db6aa64e514da0e1a36979b60029",
  "source": "pragma solidity ^0.4.22;\r\n\r\n//import 'https://github.com/verifyas/contract/contracts/CREDToken.sol';\r\nimport '../node_modules/openzeppelin-solidity/contracts/math/SafeMath.sol';\r\n\r\ncontract Purchase {\r\n\r\n    address public seller;\r\n    address public buyer;\r\n    address public verify; // TODO: Set to Verify Ethereum address\r\n    address public verifyEscrow; // TODO: Set to Verify Escrow Account Ethereum Address\r\n    uint collectedEther = 0;\r\n\r\n    modifier onlyVerify {\r\n        require(\r\n            msg.sender == verify,\r\n            \"Only Verify can call this function.\"\r\n        );\r\n        _;\r\n    }\r\n\r\n    constructor (address addressSeller) public payable {\r\n        buyer = msg.sender;\r\n        seller = addressSeller;\r\n    }\r\n\r\n    function() external payable {\r\n        collectedEther = SafeMath.add(collectedEther, msg.value); \r\n    }\r\n\r\n    function collect () external onlyVerify {\r\n        if (collectedEther > 0) {\r\n            uint amount = collectedEther;\r\n            collectedEther = 0;\r\n            verify.transfer(amount);\r\n        }\r\n    }\r\n\r\n    // TODO: Get creditCeiling from Verify server instead of from buyer\r\n    function sendFundsToVerify (uint creditCeiling) public payable {\r\n        uint transactionFee = SafeMath.div(msg.value, 100);\r\n        uint payment = SafeMath.sub(msg.value, transactionFee);\r\n\r\n        transactionFee = toCredToken(transactionFee);\r\n        // TODO: Transfer transaction fee to Verify account\r\n\r\n        if (payment <= creditCeiling) {\r\n            seller.transfer(payment);\r\n        } else if (creditCeiling < payment) {\r\n            if (creditCeiling > 0) {\r\n                seller.transfer(creditCeiling);\r\n            }\r\n            uint moneyInEscrow = toDaiToken(SafeMath.sub(payment, creditCeiling));\r\n            // TODO: Transfer escrow money to Verify escrow account\r\n        }\r\n    }\r\n\r\n    function toDaiToken (uint amountInEther)\r\n        private\r\n        returns (uint amountInDai)\r\n    {\r\n    }\r\n\r\n    function toCredToken (uint amountInEther)\r\n        private\r\n        returns (uint amountInCred)\r\n    {\r\n    }\r\n}",
  "sourcePath": "C:\\Users\\ricky_000\\Documents\\GitHub\\ethereum-smart-contract\\contracts\\Purchase.sol",
  "compiler": {
    "name": "solc",
    "version": "0.4.24+commit.e67f0147.Emscripten.clang"
  },
  "schemaVersion": "2.0.1",
  "updatedAt": "2018-07-09T21:57:34.927Z"
}