{
  "contractName": "Purchase",
  "abi": [
    {
      "constant": true,
      "inputs": [],
      "name": "seller",
      "outputs": [
        {
          "name": "",
          "type": "address"
        }
      ],
      "payable": false,
      "stateMutability": "view",
      "type": "function"
    },
    {
      "constant": true,
      "inputs": [],
      "name": "creditCeiling",
      "outputs": [
        {
          "name": "",
          "type": "uint256"
        }
      ],
      "payable": false,
      "stateMutability": "view",
      "type": "function"
    },
    {
      "constant": true,
      "inputs": [],
      "name": "verifyEscrow",
      "outputs": [
        {
          "name": "",
          "type": "address"
        }
      ],
      "payable": false,
      "stateMutability": "view",
      "type": "function"
    },
    {
      "constant": true,
      "inputs": [],
      "name": "buyer",
      "outputs": [
        {
          "name": "",
          "type": "address"
        }
      ],
      "payable": false,
      "stateMutability": "view",
      "type": "function"
    },
    {
      "constant": true,
      "inputs": [],
      "name": "moneyInEscrow",
      "outputs": [
        {
          "name": "",
          "type": "uint256"
        }
      ],
      "payable": false,
      "stateMutability": "view",
      "type": "function"
    },
    {
      "constant": true,
      "inputs": [],
      "name": "verify",
      "outputs": [
        {
          "name": "",
          "type": "address"
        }
      ],
      "payable": false,
      "stateMutability": "view",
      "type": "function"
    },
    {
      "inputs": [
        {
          "name": "addressSeller",
          "type": "address"
        }
      ],
      "payable": true,
      "stateMutability": "payable",
      "type": "constructor"
    },
    {
      "payable": true,
      "stateMutability": "payable",
      "type": "fallback"
    },
    {
      "constant": false,
      "inputs": [
        {
          "name": "ceiling",
          "type": "uint256"
        }
      ],
      "name": "setCreditCeiling",
      "outputs": [],
      "payable": false,
      "stateMutability": "nonpayable",
      "type": "function"
    },
    {
      "constant": false,
      "inputs": [
        {
          "name": "moneyInDai",
          "type": "uint256"
        }
      ],
      "name": "toDaiStablecoin",
      "outputs": [],
      "payable": false,
      "stateMutability": "nonpayable",
      "type": "function"
    },
    {
      "constant": false,
      "inputs": [],
      "name": "sendFundsToVerify",
      "outputs": [],
      "payable": true,
      "stateMutability": "payable",
      "type": "function"
    },
    {
      "constant": false,
      "inputs": [],
      "name": "sendFundsToSeller",
      "outputs": [],
      "payable": true,
      "stateMutability": "payable",
      "type": "function"
    },
    {
      "constant": false,
      "inputs": [],
      "name": "refundFromVerify",
      "outputs": [],
      "payable": true,
      "stateMutability": "payable",
      "type": "function"
    }
  ],
  "bytecode": "0x608060405273848a4a97b22cd1c447c322bfc94d2910677367ec600260006101000a81548173ffffffffffffffffffffffffffffffffffffffff021916908373ffffffffffffffffffffffffffffffffffffffff16021790555073e41f2af5603b376e9df9f3e0763a0e568530ee7b600360006101000a81548173ffffffffffffffffffffffffffffffffffffffff021916908373ffffffffffffffffffffffffffffffffffffffff16021790555060006004556000600555604051602080610bf083398101806040528101908080519060200190929190505050336000806101000a81548173ffffffffffffffffffffffffffffffffffffffff021916908373ffffffffffffffffffffffffffffffffffffffff16021790555080600160006101000a81548173ffffffffffffffffffffffffffffffffffffffff021916908373ffffffffffffffffffffffffffffffffffffffff16021790555050610a858061016b6000396000f3006080604052600436106100af576000357c0100000000000000000000000000000000000000000000000000000000900463ffffffff16806308551a53146100b15780630a30dfc91461010857806310a441c91461013357806364e8b4eb1461018a5780637043c8b0146101945780637150d8ae146101c157806392358fc41461021857806396c7a3bc14610243578063da3509391461024d578063e7d58efe1461027a578063fc735e9914610284575b005b3480156100bd57600080fd5b506100c66102db565b604051808273ffffffffffffffffffffffffffffffffffffffff1673ffffffffffffffffffffffffffffffffffffffff16815260200191505060405180910390f35b34801561011457600080fd5b5061011d610301565b6040518082815260200191505060405180910390f35b34801561013f57600080fd5b50610148610307565b604051808273ffffffffffffffffffffffffffffffffffffffff1673ffffffffffffffffffffffffffffffffffffffff16815260200191505060405180910390f35b61019261032d565b005b3480156101a057600080fd5b506101bf60048036038101908080359060200190929190505050610493565b005b3480156101cd57600080fd5b506101d6610588565b604051808273ffffffffffffffffffffffffffffffffffffffff1673ffffffffffffffffffffffffffffffffffffffff16815260200191505060405180910390f35b34801561022457600080fd5b5061022d6105ad565b6040518082815260200191505060405180910390f35b61024b6105b3565b005b34801561025957600080fd5b50610278600480360381019080803590602001909291905050506107a7565b005b61028261089c565b005b34801561029057600080fd5b50610299610a01565b604051808273ffffffffffffffffffffffffffffffffffffffff1673ffffffffffffffffffffffffffffffffffffffff16815260200191505060405180910390f35b600160009054906101000a900473ffffffffffffffffffffffffffffffffffffffff1681565b60045481565b600360009054906101000a900473ffffffffffffffffffffffffffffffffffffffff1681565b6000600360009054906101000a900473ffffffffffffffffffffffffffffffffffffffff1673ffffffffffffffffffffffffffffffffffffffff163373ffffffffffffffffffffffffffffffffffffffff1614151561041a576040517f08c379a00000000000000000000000000000000000000000000000000000000081526004018080602001828103825260398152602001807f4f6e6c792074686520657363726f77206163636f756e74206f6620566572696681526020017f792063616e2063616c6c20746869732066756e6374696f6e2e0000000000000081525060400191505060405180910390fd5b60055490506000600581905550600160009054906101000a900473ffffffffffffffffffffffffffffffffffffffff1673ffffffffffffffffffffffffffffffffffffffff166108fc829081150290604051600060405180830381858888f1935050505015801561048f573d6000803e3d6000fd5b5050565b600360009054906101000a900473ffffffffffffffffffffffffffffffffffffffff1673ffffffffffffffffffffffffffffffffffffffff163373ffffffffffffffffffffffffffffffffffffffff1614151561057e576040517f08c379a00000000000000000000000000000000000000000000000000000000081526004018080602001828103825260398152602001807f4f6e6c792074686520657363726f77206163636f756e74206f6620566572696681526020017f792063616e2063616c6c20746869732066756e6374696f6e2e0000000000000081525060400191505060405180910390fd5b8060048190555050565b6000809054906101000a900473ffffffffffffffffffffffffffffffffffffffff1681565b60055481565b6000806105c1346064610a27565b91508134039050600260009054906101000a900473ffffffffffffffffffffffffffffffffffffffff1673ffffffffffffffffffffffffffffffffffffffff166108fc839081150290604051600060405180830381858888f19350505050158015610630573d6000803e3d6000fd5b50600454811115156106aa57600160009054906101000a900473ffffffffffffffffffffffffffffffffffffffff1673ffffffffffffffffffffffffffffffffffffffff166108fc829081150290604051600060405180830381858888f193505050501580156106a4573d6000803e3d6000fd5b506107a3565b6000600454111561072157600160009054906101000a900473ffffffffffffffffffffffffffffffffffffffff1673ffffffffffffffffffffffffffffffffffffffff166108fc6004549081150290604051600060405180830381858888f1935050505015801561071f573d6000803e3d6000fd5b505b6107316005546004548303610a3d565b600581905550600360009054906101000a900473ffffffffffffffffffffffffffffffffffffffff1673ffffffffffffffffffffffffffffffffffffffff166108fc6005549081150290604051600060405180830381858888f193505050501580156107a1573d6000803e3d6000fd5b505b5050565b600360009054906101000a900473ffffffffffffffffffffffffffffffffffffffff1673ffffffffffffffffffffffffffffffffffffffff163373ffffffffffffffffffffffffffffffffffffffff16141515610892576040517f08c379a00000000000000000000000000000000000000000000000000000000081526004018080602001828103825260398152602001807f4f6e6c792074686520657363726f77206163636f756e74206f6620566572696681526020017f792063616e2063616c6c20746869732066756e6374696f6e2e0000000000000081525060400191505060405180910390fd5b8060058190555050565b6000600360009054906101000a900473ffffffffffffffffffffffffffffffffffffffff1673ffffffffffffffffffffffffffffffffffffffff163373ffffffffffffffffffffffffffffffffffffffff16141515610989576040517f08c379a00000000000000000000000000000000000000000000000000000000081526004018080602001828103825260398152602001807f4f6e6c792074686520657363726f77206163636f756e74206f6620566572696681526020017f792063616e2063616c6c20746869732066756e6374696f6e2e0000000000000081525060400191505060405180910390fd5b600554905060006005819055506000809054906101000a900473ffffffffffffffffffffffffffffffffffffffff1673ffffffffffffffffffffffffffffffffffffffff166108fc829081150290604051600060405180830381858888f193505050501580156109fd573d6000803e3d6000fd5b5050565b600260009054906101000a900473ffffffffffffffffffffffffffffffffffffffff1681565b60008183811515610a3457fe5b04905092915050565b60008183019050828110151515610a5057fe5b809050929150505600a165627a7a72305820ed573976bc1b128c11ea86deb44fa00e3506f2b777d1c467583c13ae792b19440029",
  "source": "pragma solidity ^0.4.22;\r\n\r\nimport '../node_modules/openzeppelin-solidity/contracts/math/SafeMath.sol';\r\n\r\ncontract Purchase {\r\n\r\n    address public buyer;\r\n    address public seller;\r\n    address public verify = 0x848a4a97B22CD1c447C322Bfc94d2910677367ec;\r\n    address public verifyEscrow = 0xE41F2AF5603b376E9dF9f3e0763A0E568530Ee7b;\r\n    uint public creditCeiling = 0;\r\n    uint public moneyInEscrow = 0;\r\n\r\n    modifier onlyVerifyEscrow {\r\n        require(\r\n            msg.sender == verifyEscrow,\r\n            \"Only the escrow account of Verify can call this function.\"\r\n        );\r\n        _;\r\n    }\r\n\r\n    constructor (address addressSeller) public payable {\r\n        buyer = msg.sender;\r\n        seller = addressSeller;\r\n    }\r\n\r\n    // Fallback function to accept ETH into contract.\r\n    function() public payable {\r\n    }\r\n\r\n    function setCreditCeiling (uint ceiling) external onlyVerifyEscrow {\r\n        creditCeiling = ceiling;\r\n    }\r\n\r\n    function toDaiStablecoin (uint moneyInDai) external onlyVerifyEscrow {\r\n        moneyInEscrow = moneyInDai;\r\n    }\r\n\r\n    function sendFundsToVerify () public payable {\r\n        uint transactionFee = SafeMath.div(msg.value, 100);\r\n        uint payment = msg.value - transactionFee;\r\n\r\n        verify.transfer(transactionFee);\r\n\r\n        if (payment <= creditCeiling) {\r\n            seller.transfer(payment);\r\n        } else {\r\n            if (creditCeiling > 0) {\r\n                seller.transfer(creditCeiling);\r\n            }\r\n            moneyInEscrow = SafeMath.add(moneyInEscrow, payment - creditCeiling);\r\n\r\n            verifyEscrow.transfer(moneyInEscrow);\r\n        }\r\n    }\r\n\r\n    function sendFundsToSeller () public payable onlyVerifyEscrow {\r\n        uint moneyTransfer = moneyInEscrow;\r\n        moneyInEscrow = 0;\r\n\r\n        seller.transfer(moneyTransfer);\r\n    }\r\n\r\n    function refundFromVerify () public payable onlyVerifyEscrow {\r\n        uint moneyTransfer = moneyInEscrow;\r\n        moneyInEscrow = 0;\r\n\r\n        buyer.transfer(moneyTransfer);\r\n    }\r\n}",
  "sourcePath": "C:\\Users\\ricky_000\\Documents\\GitHub\\ethereum-smart-contract\\contracts\\Purchase.sol",
  "compiler": {
    "name": "solc",
    "version": "0.4.24+commit.e67f0147.Emscripten.clang"
  },
  "schemaVersion": "2.0.1",
  "updatedAt": "2018-07-30T20:36:54.890Z"
}