{
  "contractName": "Purchase",
  "abi": [
    {
      "constant": true,
      "inputs": [],
      "name": "seller",
      "outputs": [
        {
          "name": "",
          "type": "address"
        }
      ],
      "payable": false,
      "stateMutability": "view",
      "type": "function"
    },
    {
      "constant": true,
      "inputs": [],
      "name": "verifyEscrow",
      "outputs": [
        {
          "name": "",
          "type": "address"
        }
      ],
      "payable": false,
      "stateMutability": "view",
      "type": "function"
    },
    {
      "constant": true,
      "inputs": [],
      "name": "buyer",
      "outputs": [
        {
          "name": "",
          "type": "address"
        }
      ],
      "payable": false,
      "stateMutability": "view",
      "type": "function"
    },
    {
      "constant": true,
      "inputs": [],
      "name": "verify",
      "outputs": [
        {
          "name": "",
          "type": "address"
        }
      ],
      "payable": false,
      "stateMutability": "view",
      "type": "function"
    },
    {
      "inputs": [
        {
          "name": "addressSeller",
          "type": "address"
        },
        {
          "name": "p",
          "type": "uint256"
        },
        {
          "name": "addressVerify",
          "type": "address"
        },
        {
          "name": "addressVerifyEscrow",
          "type": "address"
        }
      ],
      "payable": true,
      "stateMutability": "payable",
      "type": "constructor"
    },
    {
      "payable": true,
      "stateMutability": "payable",
      "type": "fallback"
    },
    {
      "constant": false,
      "inputs": [],
      "name": "collect",
      "outputs": [],
      "payable": false,
      "stateMutability": "nonpayable",
      "type": "function"
    },
    {
      "constant": false,
      "inputs": [
        {
          "name": "ceiling",
          "type": "uint256"
        }
      ],
      "name": "setCreditCeiling",
      "outputs": [],
      "payable": false,
      "stateMutability": "nonpayable",
      "type": "function"
    },
    {
      "constant": false,
      "inputs": [],
      "name": "sendFundsToVerify",
      "outputs": [
        {
          "name": "completed",
          "type": "bool"
        }
      ],
      "payable": true,
      "stateMutability": "payable",
      "type": "function"
    },
    {
      "constant": false,
      "inputs": [],
      "name": "sendFundsToSeller",
      "outputs": [
        {
          "name": "completed",
          "type": "bool"
        }
      ],
      "payable": true,
      "stateMutability": "payable",
      "type": "function"
    },
    {
      "constant": false,
      "inputs": [],
      "name": "refundFromSeller",
      "outputs": [
        {
          "name": "completed",
          "type": "bool"
        }
      ],
      "payable": true,
      "stateMutability": "payable",
      "type": "function"
    },
    {
      "constant": false,
      "inputs": [],
      "name": "refundFromVerify",
      "outputs": [
        {
          "name": "completed",
          "type": "bool"
        }
      ],
      "payable": true,
      "stateMutability": "payable",
      "type": "function"
    }
  ],
  "bytecode": "0x60806040526000600455600060055560006006556000600755604051608080610e1883398101806040528101908080519060200190929190805190602001909291908051906020019092919080519060200190929190505050336000806101000a81548173ffffffffffffffffffffffffffffffffffffffff021916908373ffffffffffffffffffffffffffffffffffffffff16021790555083600160006101000a81548173ffffffffffffffffffffffffffffffffffffffff021916908373ffffffffffffffffffffffffffffffffffffffff1602179055508260058190555081600260006101000a81548173ffffffffffffffffffffffffffffffffffffffff021916908373ffffffffffffffffffffffffffffffffffffffff16021790555080600360006101000a81548173ffffffffffffffffffffffffffffffffffffffff021916908373ffffffffffffffffffffffffffffffffffffffff16021790555050505050610ca3806101756000396000f3006080604052600436106100a4576000357c0100000000000000000000000000000000000000000000000000000000900463ffffffff16806308551a53146100a657806310a441c9146100fd57806319e94e9e1461015457806364e8b4eb146101765780637043c8b0146101985780637150d8ae146101c557806396c7a3bc1461021c578063e52253811461023e578063e7d58efe14610255578063fc735e9914610277575b005b3480156100b257600080fd5b506100bb6102ce565b604051808273ffffffffffffffffffffffffffffffffffffffff1673ffffffffffffffffffffffffffffffffffffffff16815260200191505060405180910390f35b34801561010957600080fd5b506101126102f4565b604051808273ffffffffffffffffffffffffffffffffffffffff1673ffffffffffffffffffffffffffffffffffffffff16815260200191505060405180910390f35b61015c61031a565b604051808215151515815260200191505060405180910390f35b61017e610480565b604051808215151515815260200191505060405180910390f35b3480156101a457600080fd5b506101c3600480360381019080803590602001909291905050506105f4565b005b3480156101d157600080fd5b506101da6106e9565b604051808273ffffffffffffffffffffffffffffffffffffffff1673ffffffffffffffffffffffffffffffffffffffff16815260200191505060405180910390f35b61022461070e565b604051808215151515815260200191505060405180910390f35b34801561024a57600080fd5b50610253610a1e565b005b61025d610aa0565b604051808215151515815260200191505060405180910390f35b34801561028357600080fd5b5061028c610c06565b604051808273ffffffffffffffffffffffffffffffffffffffff1673ffffffffffffffffffffffffffffffffffffffff16815260200191505060405180910390f35b600160009054906101000a900473ffffffffffffffffffffffffffffffffffffffff1681565b600360009054906101000a900473ffffffffffffffffffffffffffffffffffffffff1681565b6000600160009054906101000a900473ffffffffffffffffffffffffffffffffffffffff1673ffffffffffffffffffffffffffffffffffffffff163373ffffffffffffffffffffffffffffffffffffffff16141515610407576040517f08c379a00000000000000000000000000000000000000000000000000000000081526004018080602001828103825260278152602001807f4f6e6c79207468652073656c6c65722063616e2063616c6c207468697320667581526020017f6e6374696f6e2e0000000000000000000000000000000000000000000000000081525060400191505060405180910390fd5b6000809054906101000a900473ffffffffffffffffffffffffffffffffffffffff1673ffffffffffffffffffffffffffffffffffffffff166108fc6006549081150290604051600060405180830381858888f19350505050158015610470573d6000803e3d6000fd5b5060006006819055506001905090565b6000600360009054906101000a900473ffffffffffffffffffffffffffffffffffffffff1673ffffffffffffffffffffffffffffffffffffffff163373ffffffffffffffffffffffffffffffffffffffff1614151561056d576040517f08c379a00000000000000000000000000000000000000000000000000000000081526004018080602001828103825260398152602001807f4f6e6c792074686520657363726f77206163636f756e74206f6620566572696681526020017f792063616e2063616c6c20746869732066756e6374696f6e2e0000000000000081525060400191505060405180910390fd5b600160009054906101000a900473ffffffffffffffffffffffffffffffffffffffff1673ffffffffffffffffffffffffffffffffffffffff166108fc6007549081150290604051600060405180830381858888f193505050501580156105d7573d6000803e3d6000fd5b506007546006540160068190555060006007819055506001905090565b600260009054906101000a900473ffffffffffffffffffffffffffffffffffffffff1673ffffffffffffffffffffffffffffffffffffffff163373ffffffffffffffffffffffffffffffffffffffff161415156106df576040517f08c379a00000000000000000000000000000000000000000000000000000000081526004018080602001828103825260238152602001807f4f6e6c79205665726966792063616e2063616c6c20746869732066756e63746981526020017f6f6e2e000000000000000000000000000000000000000000000000000000000081525060400191505060405180910390fd5b8060048190555050565b6000809054906101000a900473ffffffffffffffffffffffffffffffffffffffff1681565b60008060008060009054906101000a900473ffffffffffffffffffffffffffffffffffffffff1673ffffffffffffffffffffffffffffffffffffffff163373ffffffffffffffffffffffffffffffffffffffff161415156107fd576040517f08c379a00000000000000000000000000000000000000000000000000000000081526004018080602001828103825260268152602001807f4f6e6c79207468652062757965722063616e2063616c6c20746869732066756e81526020017f6374696f6e2e000000000000000000000000000000000000000000000000000081525060400191505060405180910390fd5b610805610c2c565b91506108113483610c3e565b90506005548110156108265760009250610a19565b61082f82610c57565b9150600260009054906101000a900473ffffffffffffffffffffffffffffffffffffffff1673ffffffffffffffffffffffffffffffffffffffff166108fc839081150290604051600060405180830381858888f19350505050158015610899573d6000803e3d6000fd5b506004548111151561091e57600160009054906101000a900473ffffffffffffffffffffffffffffffffffffffff1673ffffffffffffffffffffffffffffffffffffffff166108fc829081150290604051600060405180830381858888f1935050505015801561090d573d6000803e3d6000fd5b508060065401600681905550610a14565b600060045411156109a257600160009054906101000a900473ffffffffffffffffffffffffffffffffffffffff1673ffffffffffffffffffffffffffffffffffffffff166108fc6004549081150290604051600060405180830381858888f19350505050158015610993573d6000803e3d6000fd5b50600454600654016006819055505b80600781905550600360009054906101000a900473ffffffffffffffffffffffffffffffffffffffff1673ffffffffffffffffffffffffffffffffffffffff166108fc60329081150290604051600060405180830381858888f19350505050158015610a12573d6000803e3d6000fd5b505b600192505b505090565b600260009054906101000a900473ffffffffffffffffffffffffffffffffffffffff1673ffffffffffffffffffffffffffffffffffffffff166108fc3073ffffffffffffffffffffffffffffffffffffffff16319081150290604051600060405180830381858888f19350505050158015610a9d573d6000803e3d6000fd5b50565b6000600360009054906101000a900473ffffffffffffffffffffffffffffffffffffffff1673ffffffffffffffffffffffffffffffffffffffff163373ffffffffffffffffffffffffffffffffffffffff16141515610b8d576040517f08c379a00000000000000000000000000000000000000000000000000000000081526004018080602001828103825260398152602001807f4f6e6c792074686520657363726f77206163636f756e74206f6620566572696681526020017f792063616e2063616c6c20746869732066756e6374696f6e2e0000000000000081525060400191505060405180910390fd5b6000809054906101000a900473ffffffffffffffffffffffffffffffffffffffff1673ffffffffffffffffffffffffffffffffffffffff166108fc6007549081150290604051600060405180830381858888f19350505050158015610bf6573d6000803e3d6000fd5b5060006007819055506001905090565b600260009054906101000a900473ffffffffffffffffffffffffffffffffffffffff1681565b6000610c39346064610c61565b905090565b6000828211151515610c4c57fe5b818303905092915050565b6000819050919050565b60008183811515610c6e57fe5b049050929150505600a165627a7a72305820b1f5485f6a5e8186fd8aeb89acbbd92f3cb29ea7e6b2a0806d87a7a78c2d9af90029",
  "source": "pragma solidity ^0.4.22;\r\n\r\n//import 'https://github.com/verifyas/contract/contracts/CREDToken.sol';\r\nimport '../node_modules/openzeppelin-solidity/contracts/math/SafeMath.sol';\r\n\r\ncontract Purchase {\r\n\r\n    address public buyer;\r\n    address public seller;\r\n    address public verify; // TODO: Set to Verify Ethereum address\r\n    address public verifyEscrow; // TODO: Set to Verify Escrow Account Ethereum Address\r\n    uint private creditCeiling = 0;\r\n    uint private price = 0;\r\n    uint private paid = 0;\r\n    uint private moneyInEscrow = 0;\r\n\r\n    modifier onlyVerify {\r\n        require(\r\n            msg.sender == verify,\r\n            \"Only Verify can call this function.\"\r\n        );\r\n        _;\r\n    }\r\n\r\n    modifier onlyVerifyEscrow {\r\n        require(\r\n            msg.sender == verifyEscrow,\r\n            \"Only the escrow account of Verify can call this function.\"\r\n        );\r\n        _;\r\n    }\r\n\r\n    modifier onlyBuyer {\r\n        require(\r\n            msg.sender == buyer,\r\n            \"Only the buyer can call this function.\"\r\n        );\r\n        _;\r\n    }\r\n\r\n    modifier onlySeller {\r\n        require(\r\n            msg.sender == seller,\r\n            \"Only the seller can call this function.\"\r\n        );\r\n        _;\r\n    }\r\n\r\n    // IMPORTANT: Remove the input of addressVerify and addressVerifyEscrow before releasing.\r\n    // These are included for testing purposes ONLY!\r\n    constructor (address addressSeller, uint p, address addressVerify, address addressVerifyEscrow) public payable {\r\n        buyer = msg.sender;\r\n        seller = addressSeller;\r\n        price = p;\r\n        verify = addressVerify; // IMPORTANT: Remove this line and the line below it before releasing - these are included for testing purposes ONLY!\r\n        verifyEscrow = addressVerifyEscrow;\r\n    }\r\n\r\n    // Fallback function to accept ETH into contract.\r\n    function() public payable {\r\n    }\r\n\r\n    function collect () public {\r\n        verify.transfer(address(this).balance);\r\n    }\r\n\r\n    function setCreditCeiling (uint ceiling) external onlyVerify {\r\n        creditCeiling = ceiling;\r\n    }\r\n\r\n    function sendFundsToVerify ()\r\n        public\r\n        payable\r\n        onlyBuyer\r\n        returns (bool completed)\r\n    {\r\n        uint transactionFee = getTransactionFee();\r\n        uint payment = SafeMath.sub(msg.value, transactionFee);\r\n\r\n        if (payment < price) {\r\n            return false;\r\n        }\r\n\r\n        transactionFee = toCredToken(transactionFee);\r\n        verify.transfer(transactionFee);\r\n\r\n        if (payment <= creditCeiling) {\r\n            seller.transfer(payment);\r\n            paid = paid + payment;\r\n        } else {\r\n            if (creditCeiling > 0) {\r\n                seller.transfer(creditCeiling);\r\n                paid = paid + creditCeiling;\r\n            }\r\n            moneyInEscrow = payment;\r\n            verifyEscrow.transfer(50);\r\n        }\r\n\r\n        /*//moneyInEscrow = moneyInEscrow + toDaiToken(payment - creditCeiling);\r\n            verifyEscrow.transfer(moneyInEscrow);\r\n        }*/\r\n        return true;\r\n    }\r\n\r\n    function sendFundsToSeller ()\r\n        public\r\n        payable\r\n        onlyVerifyEscrow\r\n        returns (bool completed)\r\n    {\r\n        seller.transfer(moneyInEscrow);\r\n        paid = paid + moneyInEscrow;\r\n        moneyInEscrow = 0;\r\n        return true;\r\n    }\r\n\r\n    // Note: Transaction fee is non-refundable.\r\n    function refundFromSeller ()\r\n        public\r\n        payable\r\n        onlySeller\r\n        returns (bool completed)\r\n    {\r\n        buyer.transfer(paid);\r\n        paid = 0;\r\n        return true;\r\n    }\r\n\r\n    function refundFromVerify ()\r\n        public\r\n        payable\r\n        onlyVerifyEscrow\r\n        returns (bool completed)\r\n    {\r\n        buyer.transfer(moneyInEscrow);\r\n        moneyInEscrow = 0;\r\n        return true;\r\n    }\r\n\r\n    // Note: For v1, we will only take 1% of the transaction as 'insurance' fee.\r\n    // In the future, we will use an algorithm to calculate the 'insurance' fee,\r\n    // taking into account the reputation of both parties involved.\r\n    function getTransactionFee ()\r\n        private\r\n        returns (uint transactionFee)\r\n    {\r\n        return SafeMath.div(msg.value, 100);\r\n    }\r\n\r\n    function toDaiToken (uint amountInEther)\r\n        private\r\n        returns (uint amountInDai)\r\n    {\r\n        return amountInEther;\r\n    }\r\n\r\n    function toCredToken (uint amountInEther)\r\n        private\r\n        returns (uint amountInCred)\r\n    {\r\n        return amountInEther;\r\n    }\r\n}",
  "sourcePath": "C:\\Users\\ricky_000\\Documents\\GitHub\\ethereum-smart-contract\\contracts\\Purchase.sol",
  "compiler": {
    "name": "solc",
    "version": "0.4.24+commit.e67f0147.Emscripten.clang"
  },
  "schemaVersion": "2.0.1",
  "updatedAt": "2018-07-11T21:29:27.503Z"
}